:020000040000fa
:080000000002040000000000f2
:020000040000fa
:040008000c040000e4
:020000040000fa
:04000c000c040000e0
:020000040000fa
:040010000c040000dc
:020000040000fa
:040014000c040000d8
:020000040000fa
:040018000c040000d4
:020000040000fa
:04001c000c040000d0
:020000040000fa
:040020000c040000cc
:020000040000fa
:040024000c040000c8
:020000040000fa
:040028000c040000c4
:020000040000fa
:04002c000c040000c0
:020000040000fa
:040030000c040000bc
:020000040000fa
:040034000c040000b8
:020000040000fa
:040038000c040000b4
:020000040000fa
:04003c000c040000b0
:020000040000fa
:040040000c040000ac
:020000040000fa
:04004400b671010090
:020000040000fa
:040048000c040000a4
:020000040000fa
:04004c000c040000a0
:020000040000fa
:040050000c0400009c
:020000040000fa
:0400540044660100fd
:020000040000fa
:040058000c04000094
:020000040000fa
:04005c000c04000090
:020000040000fa
:040060000c0400008c
:020000040000fa
:040064000c04000088
:020000040000fa
:040068000c04000084
:020000040000fa
:04006c000c04000080
:020000040000fa
:040070000c0400007c
:020000040000fa
:040074000c04000078
:020000040000fa
:04007800806901009a
:020000040000fa
:04007c000c04000070
:020000040000fa
:040080000c0400006c
:020000040000fa
:040084000c04000068
:020000040000fa
:040088000c04000064
:020000040000fa
:04008c000c04000060
:020000040000fa
:040090000c0400005c
:020000040000fa
:0400940018690100e6
:020000040000fa
:040098009e6901005c
:020000040000fa
:04009c000c04000050
:020000040000fa
:0400a0008c66010069
:020000040000fa
:0400a4000c04000048
:020000040000fa
:0400a8000c04000044
:020000040000fa
:0400ac000c04000040
:020000040000fa
:0400b0000c0400003c
:020000040000fa
:0400b4000c04000038
:020000040000fa
:0400b8000c04000034
:020000040000fa
:0400bc000c04000030
:020000040000fa
:0400c0000c0400002c
:020000040000fa
:0400c4000c04000028
:020000040000fa
:0400c8000c04000024
:020000040000fa
:0400cc000c04000020
:020000040000fa
:0400d0000c0400001c
:020000040000fa
:0400d4000c04000018
:020000040000fa
:0400d8000c04000014
:020000040000fa
:0400dc000c04000010
:020000040000fa
:0400e0000c0400000c
:020000040000fa
:0400e4000c04000008
:020000040000fa
:0400e8000c04000004
:020000040000fa
:0400ec000c04000000
:020000040000fa
:0400f0000c040000fc
:020000040000fa
:0400f4000c040000f8
:020000040000fa
:0400f8000c040000f4
:020000040000fa
:0400fc000c040000f0
:020000040000fa
:040100000c040000eb
:020000040000fa
:040104000c040000e7
:020000040000fa
:040108000c040000e3
:020000040000fa
:04010c000c040000df
:020000040000fa
:040110000c040000db
:020000040000fa
:040114000c040000d7
:020000040000fa
:040118000c040000d3
:020000040000fa
:04011c000c040000cf
:020000040000fa
:040120000c040000cb
:020000040000fa
:040124000c040000c7
:020000040000fa
:040128000c040000c3
:020000040000fa
:04012c000c040000bf
:020000040000fa
:040130000c040000bb
:020000040000fa
:040134000c040000b7
:020000040000fa
:040138000c040000b3
:020000040000fa
:04013c000c040000af
:020000040000fa
:040140000c040000ab
:020000040000fa
:040144000c040000a7
:020000040000fa
:040148000c040000a3
:020000040000fa
:04014c000c0400009f
:020000040000fa
:040150000c0400009b
:020000040000fa
:040154000c04000097
:020000040000fa
:040158000c04000093
:020000040000fa
:04015c000c0400008f
:020000040000fa
:040160000c0400008b
:020000040000fa
:040164000c04000087
:020000040000fa
:040168000c04000083
:020000040000fa
:04016c000c0400007f
:020000040000fa
:04017000e066010044
:020000040000fa
:040174000c04000077
:020000040000fa
:040178000c04000073
:020000040000fa
:04017c000c0400006f
:020000040000fa
:040180000c0400006b
:020000040000fa
:040184000c04000067
:020000040000fa
:040188000c04000063
:020000040000fa
:04018c000c0400005f
:020000040000fa
:040190000c0400005b
:020000040000fa
:040194000c04000057
:020000040000fa
:040198000c04000053
:020000040000fa
:04019c000c0400004f
:020000040000fa
:0401a0000c0400004b
:020000040000fa
:0401a4000c04000047
:020000040000fa
:0401a8000c04000043
:020000040000fa
:0401ac000c0400003f
:020000040000fa
:0401b0000c0400003b
:020000040000fa
:0401b4000c04000037
:020000040000fa
:0401b8000c04000033
:020000040000fa
:0401bc000c0400002f
:020000040000fa
:0401c0000c0400002b
:020000040000fa
:0401c4000c04000027
:020000040000fa
:0401c8000c04000023
:020000040000fa
:0401cc000c0400001f
:020000040000fa
:0401d0000c0400001b
:020000040000fa
:0401d4000c04000017
:020000040000fa
:0401d8000c04000013
:020000040000fa
:0401dc000c0400000f
:020000040000fa
:0401e0000c0400000b
:020000040000fa
:0401e4000c04000007
:020000040000fa
:0401e8000c04000003
:020000040000fa
:0401ec000c040000ff
:020000040000fa
:0401f0000c040000fb
:020000040000fa
:0401f4000c040000f7
:020000040000fa
:0401f8000c040000f3
:020000040000fa
:0401fc000c040000ef
:020000040000fa
:040200000c040000ea
:020000040000fa
:040204000c040000e6
:020000040000fa
:040208000c040000e2
:020000040000fa
:04020c000c040000de
:020000040000fa
:040210000c040000da
:020000040000fa
:040214000c040000d6
:020000040000fa
:040218000c040000d2
:020000040000fa
:04021c000c040000ce
:020000040000fa
:040220000c040000ca
:020000040000fa
:040224000c040000c6
:020000040000fa
:040228000c040000c2
:020000040000fa
:04022c000c040000be
:020000040000fa
:040230000c040000ba
:020000040000fa
:040234000c040000b6
:020000040000fa
:040238000c040000b2
:020000040000fa
:04023c000c040000ae
:020000040000fa
:040240000c040000aa
:020000040000fa
:040244000c040000a6
:020000040000fa
:040248000c040000a2
:020000040000fa
:04024c000c0400009e
:020000040000fa
:040250000c0400009a
:020000040000fa
:040254000c04000096
:020000040000fa
:040258000c04000092
:020000040000fa
:04025c000c0400008e
:020000040000fa
:040260000c0400008a
:020000040000fa
:040264000c04000086
:020000040000fa
:10040000effb26000eff27000e0188000000000011
:10041000000020000000e000020032000001200087
:10042000200288000c0007008063250011002000d6
:100430000f000700000020000000e0000200320072
:1004400000000200000000006061020001000000e6
:100450000040da000000fe00003e22000000e00044
:1004600002003200002020009001880000000600f9
:10047000a1028800800078000000eb001a0037001d
:10048000e280400054a0b4009101ba00e280400034
:1004900054a0b4009102ba00e280400054a0b4001d
:1004a0000002eb00472bde00f507b200a601880032
:1004b000602ce10008003a000049eb000201e8006e
:1004c000020039003420ec0002f0a0008301e900b2
:1004d000f9ff3e00040037006128e100010032000e
:1004e0000082eb000b00070011c3ba001101ba0033
:1004f0000604e00003003a000200e000e0ff3a00da
:1005000000000600f607b200a6028800820078000c
:10051000f5ff370004d0a300e20f49001c003900aa
:10052000810278003549ba000201e8000200390072
:100530003420ec0002f0a0008301e9000f0032003b
:100540002549ba000201e800020039003420ec001d
:1005500002f0a0008301e900080032000400e0007e
:100560000600320015c9ba000201e8000200390095
:100570003420ec0002f0a0008301e9008180e80053
:1005800054a0b4000300e000e2ff3a0000000600bf
:100590009102ba00055978008301e900f7ff3200a3
:1005a000c82ade00055978008301e900f3ff320014
:1005b0000400e000f1ff320011d9ba00eeff37006d
:1005c000f40a040001000000fc6e040001000000b9
:1005d0005c6f0400010000004a04040001000000f8
:1005e0005e25040001000000282404000100000032
:1005f0001025040001000000e21c040001000000be
:100600003a1d040001000000b01d040001000000bc
:10061000ee1d040001000000301e04000100000077
:10062000761e040001000000b41e0400010000005a
:10063000f81e0400010000003a1f04000100000041
:100640007e1f040001000000c01f04000100000024
:10065000fa1f04000100000038200400010000001f
:100660006e20040001000000b4200400010000001e
:10067000f6200400010000003c21040001000000fd
:100680007e210400010000000a2304000100000094
:10069000c421040001000000d02304000100000078
:1006a000c822040001000000022204000100000032
:1006b00044220400010000008c220400010000001c
:1006c000bc25040001000000baf504000000000091
:1006d0009046040000000000f053040000000000f9
:1006e000f4520400000000007652040000000000f4
:1006f000bc5104000000000052480400000000004b
:100700001251040000000000d04904000000000065
:10071000f24a040000000000264604000000000029
:100720007245040000000000d845040000000000ed
:100730000a450400000000009c4404000000000082
:100740003a44040000000000d84304000000000008
:100750007643040000000000144304000000000081
:10076000b2420400000000005042040000000000fb
:10077000ee410400000000008c4104000000000075
:10078000fab1040000000000c0670400010000008e
:1007900058670400010000007067040001000000b9
:1007a00028670400010000007257040000000000e8
:1007b0000ea5040000000000e6a5040000000000f3
:1007c00050a50400000000009aa6040000000000ec
:1007d00018a704000000000094b10400000000000d
:1007e000e8b10400000000009ec404000000000006
:1007f000065c0400000000002470040000000000fb
:1008000078610400000000001c600400000000008b
:1008100074c50400000000000040da000000fe0083
:100820001004b100070035009001b100040034004d
:100830007000b100030035009001b10001003c00e0
:1008400010000500000005006900e100040035000b
:100850006d00e100030034000002b100010032002d
:100860000000050010000500800078001106b100ae
:10087000030035009101b10001003c000050a100cf
:10088000000006000a00fa00e20f500020003e00bf
:10089000e07d8300e10f500006003200802320003d
:1008a0004523200023232000042320000000e00033
:1008b00004003a008022200045222000232220004c
:1008c00004222000060028001403630003003a00fd
:1008d0000608780000002800140a700013a8a3007e
:1008e00001003a0013a0a0000200780005003700c4
:1008f0001388a300feff32003102fb00840a780057
:100900000000e9000000e000f9ff3a0008003700ad
:1009100033002000b3bf9f00c0bf9f00d1bf9f0026
:10092000e2bf9f006a805700180b07006fb997005d
:10093000020078000080fa000000060003f0a20028
:10094000889fbe008a9fbe008c1f78006c01070044
:10095000730133006450e1004f0032006420e10075
:100960005200320003826c0007003b000905d000f2
:100970000306d000820f54000c065d00020039000f
:100980000200320089017800030678008582550054
:1009900004003d000003fd008103fd008502ea0024
:1009a0008b854200840f720002003b006000100043
:1009b000e08018006011b8000005eb007a28e10023
:1009c0000a00390006007800c75ddd00f707b200b5
:1009d000878075002d003700828171000a01780040
:1009e000610560008180d1000080d3008502e900ac
:1009f000f9ff3b00060440008784480002003b00ea
:100a000060041400e0841c000988a3000700320081
:100a10008a81710082817100610164008904d100c2
:100a20000884d3008b05e800170037000978a3007d
:100a300013003a000b00e000130034008b05e900be
:100a40000804440089844c000a4474000978a30017
:100a50000d003a000b00e000070034008b05e900b0
:100a60000804440089844c0001003a000b00200077
:100a70000978a300f7ff32000001eb000200370005
:100a8000828171000a017800e20007000cf0a700e3
:100a900001f0a0002b0137006420e10002003a00c1
:100aa000838f6c002b0133000801be000200be00e2
:100ab00024013700889fbe008a9fbe008c1f7800eb
:100ac0000f0107001601330003866c006450e1003b
:100ad0002e0032006420e100330032006150e1005a
:100ae0002f0032006120e100310032008585550081
:100af000eb07b000090020000804200005003700c3
:100b00000804440089844c000a00310006034300b5
:100b100087834b000001530081815b00f8ff3300a5
:100b20000203be000800a0000804440089844c00b1
:100b3000f6ff3900c639dd00830173000100320081
:100b4000130020008904d1000884d3000998a30071
:100b5000050032000800a7000300a0008904d100ae
:100b60000884d3008b05e8008904d1000884d300f1
:100b70000001eb000281d200a600070001f0a100f5
:100b80000cf0a70001f0a000ee0037006420e100a7
:100b9000f00032000801be000200be00f7ff37007f
:100ba0006120e100eb0032006000b800f3ff370085
:100bb0000000200001f82700f0ff3700140020009b
:100bc000a7023700f4ff2f00a50237000001be0086
:100bd000b60007000470a70003f0a1006509b1008a
:100be000160032000d0035006828e10006003500cf
:100bf000f0ff2f00f1ff27000300e00013003b008f
:100c0000010028000000050000004000818048002d
:100c10008502e900fcff3a0008003700f88f420027
:100c200002003c008000eb00000005008100d100c4
:100c30000080d3008502e800fcff3a000300e000da
:100c400002003b0060001000e08018000000060079
:100c50000001be00950007000470a70003f0a1008a
:100c600003f8a30013003a006509b1001000320038
:100c7000090035006928e100020035000100280064
:100c80000000050000004000818048008502e90066
:100c9000fcff3a0000000600f88f42000500350016
:100ca0008100d1000080d3008502e800fcff3a00fb
:100cb000000006008000eb00000005004f89de0008
:100cc00082017800810237006011b8008f0237007e
:100cd0000400200000003700889fbe008a9fbe00ed
:100ce0008c1f78004f26dd00850007008c00330044
:100cf0006120e100430032006250e10041003e000b
:100d00003e0039006420e1003c00320005825500bd
:100d10000f003b000402e80038003a00800f530047
:100d2000818f5b00350034000800be0003f0a10095
:100d300001f0a60003f0a0000cf0a70000ff0700e0
:100d4000800037000603430087834b000c464600b3
:100d50000005530081855b00020033000a03be00da
:100d60000c00a0000402e900f6ff3b0085057800b6
:100d70000602430087824b0004003a006000b8007e
:100d800009f0a70001f0a0006e0037000002520039
:100d900081825a000704e000040033000603430088
:100da00087834b008b05e900faff370009057800bf
:100db0000604be000203be006011b8001500070063
:100dc000e00f5200e08f5a000700350002003c009f
:100dd0000c08a300040032000601be0003f0a000ce
:100de0000cf0a700d6fe07000a85680001f0a100fc
:100df0000af0a70001f0a000520037000800be0072
:100e000050003700100220000cf0a600008088007f
:100e10005000370081002000618055000b003d002c
:100e20000b00200061fe2f000100e1001d003400d6
:100e300082817100610164008904d1000884d300bb
:100e40000000e800faff3a00710020006100640031
:100e500003007000020060000900320061044400d9
:100e6000e0844c000988a500050032008b05e800ed
:100e70006808e10002003a008904d1000884d30028
:100e8000f20f20000258e10005003d00c75ddd00c3
:100e9000f907b2008980750008007800000006009c
:100ea0000bf827008b00780000000500c70ade0061
:100eb000f107b200f50fb20008003200e1cf4200a6
:100ec000020032000170a00024000500810f7000b4
:100ed000010032000408050044000500810f700085
:100ee00002003a00140005008502e90000004000fd
:100ef00081c04800fcff3b000170a00024000500f9
:100f00000004be00e9ff07000003be000405be00a8
:100f10000200be00e5ff0700844f750000000600d8
:100f20000200be006450e100050036006420e100cc
:100f3000020036000968a30001003a000800be0064
:100f40000160a0004f0678004f05be004f04be00b0
:100f500000000600f0ff2f00f1ff2700f9ff370027
:100f6000889fbe008a9fbe008c1f7800e4ff0700a8
:100f7000ebff330003866c006450e1002400320074
:100f80006420e100270032006150e10022003200bd
:100f90006120e100210032008b854200eb07b100a7
:100fa0000134b800003ab8000804420089844a00bd
:100fb000013ab8000030b8008880400009014a00ba
:100fc0000400330000004000818048000201490015
:100fd0008b05e900c909dd008301700001003200c2
:100fe00013002000c814de004814dd004709de00ad
:100ff0001200b200c808de000884700085ff0700f8
:1010000001f0a1000cf0a70001f0a000cdff370017
