:020000040000fa
:080000000002040000000000f2
:020000040000fa
:040008000c040000e4
:020000040000fa
:04000c000c040000e0
:020000040000fa
:040010000c040000dc
:020000040000fa
:040014000c040000d8
:020000040000fa
:040018000c040000d4
:020000040000fa
:04001c000c040000d0
:020000040000fa
:040020000c040000cc
:020000040000fa
:040024000c040000c8
:020000040000fa
:040028000c040000c4
:020000040000fa
:04002c000c040000c0
:020000040000fa
:040030000c040000bc
:020000040000fa
:040034000c040000b8
:020000040000fa
:040038000c040000b4
:020000040000fa
:04003c000c040000b0
:020000040000fa
:040040000c040000ac
:020000040000fa
:04004400b671010090
:020000040000fa
:040048000c040000a4
:020000040000fa
:04004c000c040000a0
:020000040000fa
:040050000c0400009c
:020000040000fa
:0400540044660100fd
:020000040000fa
:040058000c04000094
:020000040000fa
:04005c000c04000090
:020000040000fa
:040060000c0400008c
:020000040000fa
:040064000c04000088
:020000040000fa
:040068000c04000084
:020000040000fa
:04006c000c04000080
:020000040000fa
:040070000c0400007c
:020000040000fa
:040074000c04000078
:020000040000fa
:04007800806901009a
:020000040000fa
:04007c000c04000070
:020000040000fa
:040080000c0400006c
:020000040000fa
:040084000c04000068
:020000040000fa
:040088000c04000064
:020000040000fa
:04008c000c04000060
:020000040000fa
:040090000c0400005c
:020000040000fa
:0400940018690100e6
:020000040000fa
:040098009e6901005c
:020000040000fa
:04009c000c04000050
:020000040000fa
:0400a0008c66010069
:020000040000fa
:0400a4000c04000048
:020000040000fa
:0400a8000c04000044
:020000040000fa
:0400ac000c04000040
:020000040000fa
:0400b0000c0400003c
:020000040000fa
:0400b4000c04000038
:020000040000fa
:0400b8000c04000034
:020000040000fa
:0400bc000c04000030
:020000040000fa
:0400c0000c0400002c
:020000040000fa
:0400c4000c04000028
:020000040000fa
:0400c8000c04000024
:020000040000fa
:0400cc000c04000020
:020000040000fa
:0400d0000c0400001c
:020000040000fa
:0400d4000c04000018
:020000040000fa
:0400d8000c04000014
:020000040000fa
:0400dc000c04000010
:020000040000fa
:0400e0000c0400000c
:020000040000fa
:0400e4000c04000008
:020000040000fa
:0400e8000c04000004
:020000040000fa
:0400ec000c04000000
:020000040000fa
:0400f0000c040000fc
:020000040000fa
:0400f4000c040000f8
:020000040000fa
:0400f8000c040000f4
:020000040000fa
:0400fc000c040000f0
:020000040000fa
:040100000c040000eb
:020000040000fa
:040104000c040000e7
:020000040000fa
:040108000c040000e3
:020000040000fa
:04010c000c040000df
:020000040000fa
:040110000c040000db
:020000040000fa
:040114000c040000d7
:020000040000fa
:040118000c040000d3
:020000040000fa
:04011c000c040000cf
:020000040000fa
:040120000c040000cb
:020000040000fa
:040124000c040000c7
:020000040000fa
:040128000c040000c3
:020000040000fa
:04012c000c040000bf
:020000040000fa
:040130000c040000bb
:020000040000fa
:040134000c040000b7
:020000040000fa
:040138000c040000b3
:020000040000fa
:04013c000c040000af
:020000040000fa
:040140000c040000ab
:020000040000fa
:040144000c040000a7
:020000040000fa
:040148000c040000a3
:020000040000fa
:04014c000c0400009f
:020000040000fa
:040150000c0400009b
:020000040000fa
:040154000c04000097
:020000040000fa
:040158000c04000093
:020000040000fa
:04015c000c0400008f
:020000040000fa
:040160000c0400008b
:020000040000fa
:040164000c04000087
:020000040000fa
:040168000c04000083
:020000040000fa
:04016c000c0400007f
:020000040000fa
:04017000e066010044
:020000040000fa
:040174000c04000077
:020000040000fa
:040178000c04000073
:020000040000fa
:04017c000c0400006f
:020000040000fa
:040180000c0400006b
:020000040000fa
:040184000c04000067
:020000040000fa
:040188000c04000063
:020000040000fa
:04018c000c0400005f
:020000040000fa
:040190000c0400005b
:020000040000fa
:040194000c04000057
:020000040000fa
:040198000c04000053
:020000040000fa
:04019c000c0400004f
:020000040000fa
:0401a0000c0400004b
:020000040000fa
:0401a4000c04000047
:020000040000fa
:0401a8000c04000043
:020000040000fa
:0401ac000c0400003f
:020000040000fa
:0401b0000c0400003b
:020000040000fa
:0401b4000c04000037
:020000040000fa
:0401b8000c04000033
:020000040000fa
:0401bc000c0400002f
:020000040000fa
:0401c0000c0400002b
:020000040000fa
:0401c4000c04000027
:020000040000fa
:0401c8000c04000023
:020000040000fa
:0401cc000c0400001f
:020000040000fa
:0401d0000c0400001b
:020000040000fa
:0401d4000c04000017
:020000040000fa
:0401d8000c04000013
:020000040000fa
:0401dc000c0400000f
:020000040000fa
:0401e0000c0400000b
:020000040000fa
:0401e4000c04000007
:020000040000fa
:0401e8000c04000003
:020000040000fa
:0401ec000c040000ff
:020000040000fa
:0401f0000c040000fb
:020000040000fa
:0401f4000c040000f7
:020000040000fa
:0401f8000c040000f3
:020000040000fa
:0401fc000c040000ef
:020000040000fa
:040200000c040000ea
:020000040000fa
:040204000c040000e6
:020000040000fa
:040208000c040000e2
:020000040000fa
:04020c000c040000de
:020000040000fa
:040210000c040000da
:020000040000fa
:040214000c040000d6
:020000040000fa
:040218000c040000d2
:020000040000fa
:04021c000c040000ce
:020000040000fa
:040220000c040000ca
:020000040000fa
:040224000c040000c6
:020000040000fa
:040228000c040000c2
:020000040000fa
:04022c000c040000be
:020000040000fa
:040230000c040000ba
:020000040000fa
:040234000c040000b6
:020000040000fa
:040238000c040000b2
:020000040000fa
:04023c000c040000ae
:020000040000fa
:040240000c040000aa
:020000040000fa
:040244000c040000a6
:020000040000fa
:040248000c040000a2
:020000040000fa
:04024c000c0400009e
:020000040000fa
:040250000c0400009a
:020000040000fa
:040254000c04000096
:020000040000fa
:040258000c04000092
:020000040000fa
:04025c000c0400008e
:020000040000fa
:040260000c0400008a
:020000040000fa
:040264000c04000086
:020000040000fa
:10040000effb26000eff27000e0188000000000011
:10041000000020000000e000020032000001200087
:10042000200288000c0007008063250011002000d6
:100430000f000700000020000000e0000200320072
:1004400000000200000000006061020001000000e6
:100450000040da000000fe00003e22000000e00044
:1004600002003200002020009001880000000600f9
:10047000a1028800800078000000eb001a0037001d
:10048000e280400054a0b4009101ba00e280400034
:1004900054a0b4009102ba00e280400054a0b4001d
:1004a0000002eb00472bde00f507b200a601880032
:1004b000602ce10008003a000049eb000201e8006e
:1004c000020039003420ec0002f0a0008301e900b2
:1004d000f9ff3e00040037006128e100010032000e
:1004e0000082eb000b00070011c3ba001101ba0033
:1004f0000604e00003003a000200e000e0ff3a00da
:1005000000000600f607b200a6028800820078000c
:10051000f5ff370004d0a300e20f49001c003900aa
:10052000810278003549ba000201e8000200390072
:100530003420ec0002f0a0008301e9000f0032003b
:100540002549ba000201e800020039003420ec001d
:1005500002f0a0008301e900080032000400e0007e
:100560000600320015c9ba000201e8000200390095
:100570003420ec0002f0a0008301e9008180e80053
:1005800054a0b4000300e000e2ff3a0000000600bf
:100590009102ba00055978008301e900f7ff3200a3
:1005a000c82ade00055978008301e900f3ff320014
:1005b0000400e000f1ff320011d9ba00eeff37006d
:1005c000f40a040001000000fc6e040001000000b9
:1005d0005c6f0400010000004a04040001000000f8
:1005e0005e25040001000000282404000100000032
:1005f0001025040001000000e21c040001000000be
:100600003a1d040001000000b01d040001000000bc
:10061000ee1d040001000000301e04000100000077
:10062000761e040001000000b41e0400010000005a
:10063000f81e0400010000003a1f04000100000041
:100640007e1f040001000000c01f04000100000024
:10065000fa1f04000100000038200400010000001f
:100660006e20040001000000b4200400010000001e
:10067000f6200400010000003c21040001000000fd
:100680007e210400010000000a2304000100000094
:10069000c421040001000000d02304000100000078
:1006a000c822040001000000022204000100000032
:1006b00044220400010000008c220400010000001c
:1006c000bc25040001000000baf504000000000091
:1006d0009046040000000000f053040000000000f9
:1006e000f4520400000000007652040000000000f4
:1006f000bc5104000000000052480400000000004b
:100700001251040000000000d04904000000000065
:10071000f24a040000000000264604000000000029
:100720007245040000000000d845040000000000ed
:100730000a450400000000009c4404000000000082
:100740003a44040000000000d84304000000000008
:100750007643040000000000144304000000000081
:10076000b2420400000000005042040000000000fb
:10077000ee410400000000008c4104000000000075
:10078000fab1040000000000c0670400010000008e
:1007900058670400010000007067040001000000b9
:1007a00028670400010000007257040000000000e8
:1007b0000ea5040000000000e6a5040000000000f3
:1007c00050a50400000000009aa6040000000000ec
:1007d00018a704000000000094b10400000000000d
:1007e000e8b10400000000009ec404000000000006
:1007f000065c0400000000002470040000000000fb
:1008000078610400000000001c600400000000008b
:1008100074c50400000000000040da000000fe0083
:100820001004b100070035009001b100040034004d
:100830007000b100030035009001b10001003c00e0
:1008400010000500000005006900e100040035000b
:100850006d00e100030034000002b100010032002d
:100860000000050010000500800078001106b100ae
:10087000030035009101b10001003c000050a100cf
:10088000000006000a00fa00e20f500020003e00bf
:10089000e07d8300e10f500006003200802320003d
:1008a0004523200023232000042320000000e00033
:1008b00004003a008022200045222000232220004c
:1008c00004222000060028001403630003003a00fd
:1008d0000608780000002800140a700013a8a3007e
:1008e00001003a0013a0a0000200780005003700c4
:1008f0001388a300feff32003102fb00840a780057
:100900000000e9000000e000f9ff3a0008003700ad
:1009100033002000b3bf9f00c0bf9f00d1bf9f0026
:10092000e2bf9f006a805700180b07006fb997005d
:10093000020078000080fa000000060003f0a20028
:10094000889fbe008a9fbe008c1f78006c01070044
:10095000730133006450e1004f0032006420e10075
:100960005200320003826c0007003b000905d000f2
:100970000306d000820f54000c065d00020039000f
:100980000200320089017800030678008582550054
:1009900004003d000003fd008103fd008502ea0024
:1009a0008b854200840f720002003b006000100043
:1009b000e08018006011b8000005eb007a28e10023
:1009c0000a00390006007800c75ddd00f707b200b5
:1009d000878075002d003700828171000a01780040
:1009e000610560008180d1000080d3008502e900ac
:1009f000f9ff3b00060440008784480002003b00ea
:100a000060041400e0841c000988a3000700320081
:100a10008a81710082817100610164008904d100c2
:100a20000884d3008b05e800170037000978a3007d
:100a300013003a000b00e000130034008b05e900be
:100a40000804440089844c000a4474000978a30017
:100a50000d003a000b00e000070034008b05e900b0
:100a60000804440089844c0001003a000b00200077
:100a70000978a300f7ff32000001eb000200370005
:100a8000828171000a017800e20007000cf0a700e3
:100a900001f0a0002b0137006420e10002003a00c1
:100aa000838f6c002b0133000801be000200be00e2
:100ab00024013700889fbe008a9fbe008c1f7800eb
:100ac0000f0107001601330003866c006450e1003b
:100ad0002e0032006420e100330032006150e1005a
:100ae0002f0032006120e100310032008585550081
:100af000eb07b000090020000804200005003700c3
:100b00000804440089844c000a00310006034300b5
:100b100087834b000001530081815b00f8ff3300a5
:100b20000203be000800a0000804440089844c00b1
:100b3000f6ff3900c639dd00830173000100320081
:100b4000130020008904d1000884d3000998a30071
:100b5000050032000800a7000300a0008904d100ae
:100b60000884d3008b05e8008904d1000884d300f1
:100b70000001eb000281d200a600070001f0a100f5
:100b80000cf0a70001f0a000ee0037006420e100a7
:100b9000f00032000801be000200be00f7ff37007f
:100ba0006120e100eb0032006000b800f3ff370085
:100bb0000000200001f82700f0ff3700140020009b
:100bc000a7023700f4ff2f00a50237000001be0086
:100bd000b60007000470a70003f0a1006509b1008a
:100be000160032000d0035006828e10006003500cf
:100bf000f0ff2f00f1ff27000300e00013003b008f
:100c0000010028000000050000004000818048002d
:100c10008502e900fcff3a0008003700f88f420027
:100c200002003c008000eb00000005008100d100c4
:100c30000080d3008502e800fcff3a000300e000da
:100c400002003b0060001000e08018000000060079
:100c50000001be00950007000470a70003f0a1008a
:100c600003f8a30013003a006509b1001000320038
:100c7000090035006928e100020035000100280064
:100c80000000050000004000818048008502e90066
:100c9000fcff3a0000000600f88f42000500350016
:100ca0008100d1000080d3008502e800fcff3a00fb
:100cb000000006008000eb00000005004f89de0008
:100cc00082017800810237006011b8008f0237007e
:100cd0000400200000003700889fbe008a9fbe00ed
:100ce0008c1f78004f26dd00850007008c00330044
:100cf0006120e100430032006250e10041003e000b
:100d00003e0039006420e1003c00320005825500bd
:100d10000f003b000402e80038003a00800f530047
:100d2000818f5b00350034000800be0003f0a10095
:100d300001f0a60003f0a0000cf0a70000ff0700e0
:100d4000800037000603430087834b000c464600b3
:100d50000005530081855b00020033000a03be00da
:100d60000c00a0000402e900f6ff3b0085057800b6
:100d70000602430087824b0004003a006000b8007e
:100d800009f0a70001f0a0006e0037000002520039
:100d900081825a000704e000040033000603430088
:100da00087834b008b05e900faff370009057800bf
:100db0000604be000203be006011b8001500070063
:100dc000e00f5200e08f5a000700350002003c009f
:100dd0000c08a300040032000601be0003f0a000ce
:100de0000cf0a700d6fe07000a85680001f0a100fc
:100df0000af0a70001f0a000520037000800be0072
:100e000050003700100220000cf0a600008088007f
:100e10005000370081002000618055000b003d002c
:100e20000b00200061fe2f000100e1001d003400d6
:100e300082817100610164008904d1000884d300bb
:100e40000000e800faff3a00710020006100640031
:100e500003007000020060000900320061044400d9
:100e6000e0844c000988a500050032008b05e800ed
:100e70006808e10002003a008904d1000884d30028
:100e8000f20f20000258e10005003d00c75ddd00c3
:100e9000f907b2008980750008007800000006009c
:100ea0000bf827008b00780000000500c70ade0061
:100eb000f107b200f50fb20008003200e1cf4200a6
:100ec000020032000170a00024000500810f7000b4
:100ed000010032000408050044000500810f700085
:100ee00002003a00140005008502e90000004000fd
:100ef00081c04800fcff3b000170a00024000500f9
:100f00000004be00e9ff07000003be000405be00a8
:100f10000200be00e5ff0700844f750000000600d8
:100f20000200be006450e100050036006420e100cc
:100f3000020036000968a30001003a000800be0064
:100f40000160a0004f0678004f05be004f04be00b0
:100f500000000600f0ff2f00f1ff2700f9ff370027
:100f6000889fbe008a9fbe008c1f7800e4ff0700a8
:100f7000ebff330003866c006450e1002400320074
:100f80006420e100270032006150e10022003200bd
:100f90006120e100210032008b854200eb07b100a7
:100fa0000134b800003ab8000804420089844a00bd
:100fb000013ab8000030b8008880400009014a00ba
:100fc0000400330000004000818048000201490015
:100fd0008b05e900c909dd008301700001003200c2
:100fe00013002000c814de004814dd004709de00ad
:100ff0001200b200c808de000884700085ff0700f8
:1010000001f0a1000cf0a70001f0a000cdff370017
:101010006120e100cfff32000801be000200be00e7
:10102000f7ff37006150e100fcff3a00c9ff3700cd
:101030000c00fa00889fbe008a9fbe008c9fbe00f5
:10104000afff07000206be00840578000200be0064
:10105000020020005b01070005003a008b02b3008c
:10106000120020005701070001003a00f8856d00ca
:101070000c01be00c60007000800be009b00320045
:101080000b08a3009e003a000df0a7000be0a000a3
:1010900009f0a7000bf0a00009f0a1000801be00b4
:1010a000bb0007000bf0a6009500320001003c00d9
:1010b0000bd0a0008acf7500b20033006000b800ea
:1010c0006250e10099003900a1003e000b28a30006
:1010d000a2003a000bf8a300060032000b58a30050
:1010e000a70032000801be00a90007000800be00ea
:1010f000940032000800be00c30007000004be00d8
:10110000050578000bf0a7000b30a6000bf0a1003e
:101110005b079800324f200053f32300a7fe07001f
:1011200005003d000800be0012002000a6010700d7
:101130000004be000a05e9004a0798006150b900a2
:10114000defe0700008fbe000c01be0084ff07001a
:101150009efe0700300798000100e00002003d00fd
:1011600060001000e0801800f2ff2700820f50009e
:10117000e08f580064003e000c00be0093fe0700a4
:1011800020079800f2072000820f5000e08f5800df
:1011900005003c0012f82f00f3ff2f00820f5000d3
:1011a000838f580009003d000a00e0000300320070
:1011b00001003c000201ea00020578006000b8006e
:1011c000200798003a079800190037003e00900069
:1011d0006100b900b9fe0700809fbe000c00be0090
:1011e0004109dd004811de007208b100f50007007a
:1011f0000005be001e01be0059ff07004f01be00e2
:10120000cefd0700809fbe000c00be000a01be009c
:10121000cafd07001e01be0051ff07004f01be00be
:10122000c7fd07008221270013f323004cff0700ae
:101230000005be002e0090006100b9009ffe07006f
:1012400001f0a2000c01be00bdfd07000006be00bb
:101250000800be007e0107000c01be0040ff070031
:101260000a01be00b6fd0700809fbe004a000700cd
:101270002e0590000af0a7000a05ea0005003700d5
:101280000800be000801be0035ff07000004be00d4
:101290000c00be000801be000a00a70030ff0700d6
:1012a0000006be000a05d100f5ff3a005e0190007d
:1012b00002e0a600030037000001be003600070070
:1012c000fcfd07000004be004f00be005b000700ed
:1012d0000801be0022ff07003e0190003a0107000e
:1012e000de0590000bf0a70001f0a2004f06be0043
:1012f0004f05be004f04be000080fa00000006004b
:1013000025000700f9ff3700270007006000b8003c
:101310000bd0a7000bc0a0000be0a7000bc0a200e1
:101320000bc0a70001f82700f0ff37000df8a3005d
:10133000020032001e000700190007000bf8a3008e
:10134000eaff32000b30a70001f0a200e7ff3700f0
:101350000df8a300f9ff3a00f7ff37000801be00bf
:101360000b000700e6ff320001003c000df0a20078
:101370006000b8000df0a70009000700dbff370090
:101380000b000700f1ff2700f0ff2f00d7ff370009
:101390000100070009fe370001f8230000000500e6
:1013a00001f827000000050020022000010037009e
:1013b0001002200000808800000006006022b800b3
:1013c000060220000000d0008180d2000482d200fa
:1013d0008582d2000000a0000202520083825a00df
:1013e000030031000202420083824a000000a10093
:1013f0000603e900f3ff3a0000000600efff0700d4
:101400000400be00000006000003be00a7fe0700a7
:101410006220e100020032000600be000500050067
:10142000e507b100f107b20004f0230084807000ea
:1014300007f0a70001f0a00024000500889fbe006f
:101440008a9fbe008c9fbe000004be0097fe07006e
:101450000800be006420e10048003e005500320054
:1014600072212700132b2400d6fd070047003c0003
:101470000800be00c2ec2800e32c2c00cffd0700c2
:10148000470035000800be0001f0a1000200200066
:1014900003382300c9fd0700430035000800be00e3
:1014a000b2a32a0083fb2300adfe07000200200048
:1014b00003f0230001f0a70003f0a00020fd0700c7
:1014c000c2fd07000005be00fcfd070001f0a20000
:1014d0000006be000200280013f32300a0fe070050
:1014e0000801be0016fd0700809fbe000c00be0074
:1014f00032082800e3952b0099fe07004f01be003b
:101500000ffd07000006be000001be0094fe0700ac
:10151000809fbe004241250083b8230090fe070053
:101520000200200003e8230005fd07000c01be00b7
:101530008bfe07000006be004f00be00f2f92b0034
:10154000c3d4230086fe07000200200003f023001e
:10155000fbfc07000c01be00f8fc07000001be0008
:101560000c00be0053fd07000200200003f0230022
:10157000f3fc070061014500930007004f06be0021
:101580004f05be004f04be000000060001f8270012
:10159000000020002202200002808800f7ff3700b0
:1015a0006000b800fbff370001f8230000002000b6
:1015b000f2ff370009f8a300f0ff32006000b80026
:1015c000eeff3700889fbe008a9fbe000003be006a
:1015d00036fe070085057800828152000200200057
:1015e0006220e10004003a00f307b1000400350076
:1015f0007718e100040035000600be001400370033
:101600006000b8000f003700f50f2000faff2f0030
:101610008502d1000a85d3008301e900fcff3b006d
:101620008184620000046500890f7400f2ff3200bb
:101630008582ea000a85ea00818462000004650070
:10164000f4fd070007f0a70001f0a0000081eb0007
:101650000200e0004f05be004f04be00000006007f
:10166000889fbe008a9fbe00841f780024fe07006a
:101670004f00780011003300f0ff2f00838f6c00c3
:1016800006003b00040565000a00a70008003700bb
:1016900009f0a6001000200008003700820f540057
:1016a000838f5c00030039001000200001003e0021
:1016b0000000200009f0a7000000ea004f05be006e
:1016c0004f04be000000e00000000600881f780004
:1016d000030478000300e00007003d0060001000f4
:1016e000e080180060011900e081190002003b0051
:1016f00001f02d00030037000400070008f0a700e8
:1017000001f0a0004f04780000000600889fbe0092
:101710008a9fbe0000827000040271000482710082
:10172000260032000004be000200be006011b800b6
:101730006b092000950220000182cf000a003900c9
:101740000541b1000082cf00070039000541b1001a
:101750000982cf00040039000541b1000882cf00a2
:10176000010039000541b10005425200120032006b
:101770000a003b0082817100610164008100d10098
:101780000080d3008984d3000884d3008b05e8004f
:101790000442e800f7ff3a0007003700080444005d
:1017a00089844c0000004800818048008b05e900d6
:1017b0000442e900f9ff3a0096fd07004f05be001c
:1017c0004f04be00000006000003be00b7fd070086
:1017d0006220e100020032000600be0000000600a8
:1017e00085024100e30f20000328e10005003c00d2
:1017f000a3fe2f000328e10007003d0005002000a4
:1018000001003700f50f2000200220000080880032
:101810006000b800080037001300200083815200e8
:1018200005003d008100d1000080d3008301e80065
:10183000fcff3a0005002000c72add00f107b200d6
:101840008580700007f0a70001f0a00000000600ee
:10185000889fbe008a9fbe008c9fbe00eafe0700e4
:10186000850478000005be006420e10049003e00c8
:101870006220e10003003200090035000bf8a300ec
:10188000440032000bf8a3000800320010022000d0
:1018900000808800f0ff2f00f1ff27003d00370097
:1018a00001f82f00000020003a0037003d0007003b
:1018b00022fc07000006be000a00be00324f2000d6
:1018c00053f32300bffc0700060034000c00be00e9
:1018d0003400070019fc07000006be000a00be0025
:1018e000020037008904e9000c00be002d0007004b
:1018f0009bfd07002b00070011fc07000001be0044
:101900000c00be006bfc07000005be000001be001d
:1019100093fd07000006be00a2f32300430d2c0038
:1019200007fc0700809fbe000c00be00d2e327002a
:10193000d3f02b008afd07004f01be005dfc0700bd
:101940000006be000a01be0085fd07000a01be00b8
:10195000fbfb07000006be006148b900d7fc07008a
:101960000005be0032082800e3952b007cfd07002f
:101970000c01be00f2fb07000006be000a00be001c
:101980000200280013f3230075fd07000c01be00c0
:10199000ebfb07004f06be004f05be004f04be0024
:1019a0000000060003f0230002000500800078001c
:1019b000010078003041780003c2b300834f51002a
:1019c000faff3200e94f5100f8ff3200edc141004b
:1019d000834f510003003a008000780013c0b30029
:1019e000050037008041eb00b4c2b300844f5100c2
:1019f00001003a00800078000000eb000200370090
:101a0000ea00b900000041003101fb000203b1000f
:101a1000e90f5100faff36000304e0000100320034
:101a20000000ea0000000600889fbe008a1f7800c0
:101a3000304478008004780001c2b300814f540024
:101a4000fbff3200e94f5400f9ff3200d0c2b3006f
:101a5000804f540003003a00394478001ac0b300a4
:101a6000050037000045eb00b0c2b300804f5400c2
:101a700001003a00394478006000b8000a003700dd
:101a8000a200200003002000e006070002cdb30002
:101a9000024144000281fb008001eb000200400093
:101aa00083804800394478000881fb000203b100bc
:101ab000e90f5100f2ff36000a04e0000200320094
:101ac00060001000e08018004f0578004f04be0051
:101ad0000000060003487800000278008100fb0047
:101ae000a3002000110009008300d8008000fd0041
:101af0008001780000c3b30000e241000104e0006f
:101b00000300320080c0400071fa9f000000060010
:101b100072fa9f0000000600800178006381610076
:101b2000d016200010003a004206200011000900e3
:101b30008281d80001017800e01620000200e00058
:101b400009003a00c11220008380400002192000e1
:101b5000110009008280d800d01620000100e000aa
:101b600001003a000000e80000000600889fbe0067
:101b70001004be00c2032000030020000800be00c5
:101b800093060700c07b8b00c203200003002000e7
:101b90000800be007f0607000004be00c20320004c
:101ba000030020008a060700d07b8b00c2032000c0
:101bb000030020000800be00760607000004be00f7
:101bc000820120000300200081060700e07b8b00db
:101bd00082012000030020000800be006d060700ff
:101be0000004be00e4014000720020001100090062
:101bf0008201d80001017800227c8b00690420005a
:101c000002003700000454008904e800090078004d
:101c1000c1ff0700800f5400faff3d00197c8b00c4
:101c200062406000387c8b008000eb0004003700cd
:101c3000020454008100e8000080fb000000d10095
:101c4000d2e8260002814000124170000281fb00b0
:101c5000820f5400f6ff3d00017c8b00e0f7260068
:101c60000808e800660050004f04be0000000600af
:101c70000400fa0041fc2f00b27b83000191b900ff
:101c800030024100a0824900e4bf9f00f5bf9f00e1
:101c900064805700b5ff07000080fa0000000600ce
:101ca000889fbe008a9fbe000004780068009000f4
:101cb000e300b90021e52600010040002bf12600d9
:101cc000904d78008b00e800d04878008b80e800c9
:101cd000104090008048780009c2b3000100e8007d
:101ce0000948780048009000e300b90081e626002a
:101cf00001004000e480450090487800e580450000
:101d0000d04878008100e8001040900080487800ba
:101d10000100e80009487800b80090008941780087
:101d200009417800630040006aff0700a8009000a6
:101d3000a3c3b30002c3b3006d80450065ff070075
:101d400098009000a3c3b30002c3b30070804500a5
:101d500060ff0700980078008941780002c3b30053
:101d6000738045005bff0700d80090004a06200002
:101d7000110009008a00d800f34040008041eb00c8
:101d8000094178007680450052ff0700d800900096
:101d9000110009008a00d800a3c0b30002c3b30039
:101da000788045004bff07000b0078004f05be0010
:101db0004f04be0000000600adff0700b8ff37006b
:101dc0000003780081027800850178000100370067
:101dd00004037800110009008281d8008001780096
:101de0000602e8000300e000f9ff3a00034a780029
:101df000110009008282d800000278008141780039
:101e000084027800e9cf510001003400e7c14100ad
:101e100001c3b30001d341000400e000f4ff3a0025
:101e20000600780000000600881f78000004780093
:101e30000100e00005003d0008007800d3c2b300b7
:101e4000035878008100ea0001003700080078009c
:101e5000dbff0700080078004f0478000000060050
:101e6000889fbe008a9fbe008c9fbe0080057800c0
:101e70000204be00010578000200be000100370028
:101e8000820578006156b9000c01be004bfd0700c9
:101e90000b01e800e00f5000e08f5800f8ff3a0017
:101ea0000049eb000c01be000800be0053fd070016
:101eb000004578000c01be000800be003ffd070091
:101ec0000004be00e94f550001003400674545009d
:101ed00000c3b30080554500e00f5400e08f5c0064
:101ee000f0ff3a000b0078004f06be004f05be0021
:101ef0004f04be0000000600881f78000004780030
:101f0000e00f5100e08f590006003d000800780006
:101f1000d4c2b3000458780060011100e0811900b8
:101f20000100370008007800cdff070008007800a6
:101f30004f04780000000600e68747008e1f7800f7
:101f4000d0bf9f00e1bf9f000e0037005fba97002f
:101f500014407800efb99700934078000201e9003f
:101f6000814f5000040032000080fb008180fb00a4
:101f7000010050000600370066875700041fe80084
:101f8000030fe8000200e000f0ff3a000000eb0061
:101f90004f0778006f00b100000006008001780054
:101fa00002003700b15978000201e9000200e000a8
:101fb000fcff3a000000060080017800808f50008e
:101fc0000900310002824000800f520006003600f6
:101fd0008401780082004000c36078000201e900bb
:101fe000fdff3a00000006000200e000030032009e
:101ff000b15978000201e900fbff3700000006003c
:102000008001780002003700815978000201e90060
:102010000200e000fcff3a0000000600000178002a
:1020200082017800030178003204e000fcff3a00ee
:1020300031417800825978000204e000fcff3a0048
:10204000000006000001780002007800b04178002e
:1020500081cf5100030032000304e000f9ff3a0091
:102060000001eb000200780000000600b04178009b
:1020700031c1510002003a000304e000fbff3a00c6
:102080000200fb000000060000017800b14178006a
:10209000035978000304e000fcff3a00000006004a
:1020a000800078003104e000feff3a000080ea0082
:1020b00000804000000006000002780084017800e3
:1020c0003404e000fdff3a00010037000201e9009e
:1020d0000200e000050032003142780084597800a7
:1020e0000404e000f9ff3a0000000600824978008d
:1020f000000006000a003700b04178000304e00049
:10210000030032000201e900b1cf510004003200a7
:102110008381fb001480fb0000805100000006005a
:10212000010278000200e000f3ff3a000000050021
:10213000889fbe000004be000b0037000900780035
:10214000d7ff0700000178000800be00e9ff070084
:102150000000e000090032000800e8009900fb00e0
:10216000b8ff0700000478000800e0000300320018
:102170001804e000f1ff3a000004eb0008007800ca
:102180004f04be0000000600889fbe000004be0091
:102190000800e00003003a00d87d83000800e0005a
:1021a000130032000800be00a6040700000444002b
:1021b0001804e00004003a000000eb00d07d8b0022
:1021c0000004eb000a0037000800be008a04070084
:1021d00000004400d07d8b001004e00002003200bb
:1021e0000058eb00010037000000eb00d07d8b00b1
:1021f000080078004f04be0000000600e687470094
:10220000889fbe008a9fbe008c9fbe008e1f7800f4
:1022100081067800820478008000eb00018088004d
:102220000d00e00001003200800e7800000578000b
:10223000ba4078000a0478000100fb0081bf9f00cb
:1022400081f907008fb897000000e000f8ff3a001e
:10225000d0c2b30080cf500003003a00b8407800ed
:102260001ec0b300050037000047eb00b0c2b3004a
:1022700080cf500001003a00b840780000c3b3009e
:1022800080cf500012003a00b84078000900e0000a
:1022900002003200f08f540058003a0080c7b300ab
:1022a00080cf50000300320080c5b30080cf5000c3
:1022b00003003a00b8407800090120004f003700c1
:1022c0000900e0004d003a00890020004b00370073
:1022d0000046eb000900e00002003a000046eb0077
:1022e000a90020006055b8000101fb000200780041
:1022f00081bf9f00f2b79f0049f907008fb8970090
:102300007fb197000000e000050032000200780075
:1023100055f9070091ccb300014240000500370099
:102320000203b100e90f51001e003e0004cdb300ce
:1023300004c240000400fb00890f500019003d005a
:102340000402fb00cfa2de006149b9000a00be0012
:10235000f4b79f0085bf9f00ac0407007fb29700d1
:102360008fba970004024000858248000800e80008
:10237000840f5500858f5d00050036002102200086
:10238000018088000004780010c0b3000600370008
:1023900098407800000478000405be001cc0b3001b
:1023a000d1ff37000040eb000c04e00003003200d6
:1023b0000d00e00001003200880ee900e14f5000fe
:1023c000050032000e04e000050032006005150033
:1023d000e0851d00020037000085eb008085eb00e2
:1023e0000a00be004f0778004f06be004f05be0032
:1023f0004f04be006f00b100000006001cc0b30017
:10240000b8ff3700889fbe008a9fbe008c9fbe0029
:102410008005780081047800820678000000eb00d7
:10242000008088000b0678000c0578000a0678000a
:102430003c4478000800fb0003f907000000e000be
:10244000f9ff3a00d0c2b300804f540003003200bd
:1024500000c0e900804f540002003a000a05e8007d
:1024600001003700004478000d01780089007800f1
:102470000a00780061ff07000900e0000700320051
:10248000990f550024003a008b0c78002200370089
:10249000e00f5000e08f58000f003a00b2c2b300c6
:1024a000824f540004003a00e00f5000e08f5800c3
:1024b00015003d0008003700d2c2b300824f54001f
:1024c00011003a000200200003002800820f500093
:1024d000838f58000a003600200220000080880008
:1024e000f0ff2f00f1ff2700d2c2b300824f54004b
:1024f00005003a000000200001002800020037001b
:1025000060001000e08018004f06be004f05be00be
:102510004f04be0000000600998f5500dfff3a000f
:10252000dbff37000c00fa00889fbe000004780033
:10253000f0ff2700d0bf9f008004eb0099bf9f00f1
:1025400088bf9f00a8bf9f00200c2000b0bf9f0045
:1025500078815700cfb097007080570010000700b7
:102560000fb89700094878008fb89700088050008e
:102570004f04be000080fa0000000600d001900069
:10258000028151004240a90003003400100178008c
:10259000014978000208e800010078000000060008
:1025a000fe874700889fbe008a9fbe008c9fbe00aa
:1025b0008e1f780080067800d1af9f0092b79f00f1
:1025c0000007eb003d033700dfa897008100e8001b
:1025d000d1af9f0051c2b300814f500003003a00b9
:1025e0005fa897000006eb0011003700bd009000c7
:1025f0000000fb000168a300070032000e01780014
:10260000800078000d007800dcff07000000e0008b
:1026100005003a00290337008d00780033030700d6
:10262000e10f4000250332000e07e80023033700c6
:102630008000780030417800d3c2b300834f51004e
:102640000c00320007003c00edc15100834f5100e7
:102650000a003200ebc14100834f51000d003a00e7
:102660000800370003c3b300834f510009003a004c
:10267000060037000c30a000edff37000c00a00072
:10268000ebff37000c10a000e9ff37000c20a00082
:10269000e7ff37000c18a300010032000c00a10076
:1026a0000c38a300010032000c20a1000200fb0046
:1026b0000003b100e90f50000c003e00010178005a
:1026c0000000eb00ea00b900b200fb000103b1001a
:1026d00000804000820078009201fb000303b100fb
:1026e000e98f5100f7ff3600080037000000eb00cb
:1026f000a3c2b300834f510004003a001fb19700fa
:102700004200780092b79f008100e8008001eb0052
:10271000a3b79f00e2c2b300914f11000c003a0032
:102720000ce0a00064415100d14f110003003200c1
:102730000101780003027800090037001fb29700fa
:10274000c402780094b79f00a5b79f008100e800fd
:102750000101780009003700ea22b9000482410033
:1027600082007800b201fb000303b100e98f510041
:10277000f9ff3600a4b79f00f5ff3700b24078009c
:10278000d2af9f00c3c6b30083cf500025003200f4
:102790000f003c0032c6b30082cf5000a0003200d0
:1027a00004003c000104e000c90232006b4151000a
:1027b0000f00370042c6b30082cf5000170032002e
:1027c0006541410082cf5000b3003a00130037004a
:1027d00032c7b30082cf50001f00320007003c0018
:1027e0006441510082cf5000140032000241e800e1
:1027f00082cf5000a8003a001300370052c7b30040
:1028000082cf5000ab0032006341410082cf5000c4
:10281000a1003a00e1d79f000d003700e1d79f00eb
:10282000a6003700010120000c48a300010032007f
:10283000010028000c867000d0ff3700e1d79f0010
:102840000c60a0009d003700e1d79f000c50a00055
:102850000c70a00099003700e1d79f009fb397004c
:10286000c700780097b79f00b1b79f000100e00054
:1028700002003a00c9c12600b9b79f003fb19700d6
:102880008000eb00010037008100e8008101410079
:102890001304e000fcff3a00c1b79f002fb597007a
:1028a0000a00e00005003200cfb597008b0f5500fd
:1028b000020031008a007800c1b79f00cfb09700b6
:1028c0000004eb00810f50000100360001045000ad
:1028d000680666002b003a00110037003d009000aa
:1028e0000068a300070032000e01780001022000fa
:1028f0000d00780021ff07000000e00006003a000c
:10290000060037008d0078000002200077020700e3
:10291000e10f4000010032000e07e8000804e90062
:102920000800e000edff3a000084eb0015003700de
:102930003d0090000068a300090032000800780004
:10294000b000fb00000478000e0178000d00780054
:102950000aff07000000e00008003a000f003700ff
:10296000880078003100fb00010478008d007800b9
:102970005e020700e10f4000080032000e07e80089
:1029800006003700acb79f00080678003fb49700f8
:10299000cfb497005fb59700efb5970009007800b6
:1029a0008004e9000000e000e1ff3a00b8b79f00b2
:1029b000c9b79f00dab79f00ebb79f000c047800ff
:1029c0002fb697000c00e0003c02320011003700e7
:1029d0003d0090000068a300070032000e0178005f
:1029e000010220000d007800e4fe07000000e00076
:1029f00006003a00060037008d0078000002200033
:102a00003a020700e10f4000010032000e07e80023
:102a10000804e9000800e000edff3a002702370053
:102a20009fb297004504780095b79f00cfc4de00a1
:102a3000614db9000802be000a03be004822de0054
:102a4000c828dd0004827000e4d79f000c48a30072
:102a5000090032000404e00007003200e14f4200a8
:102a600005003200f4d79f0088df9f00220020007d
:102a7000c2b79f0003003700f8d79f001300200063
:102a8000c3b79f0064fd2f000f0242000402e8005c
:102a9000b4b79f0081ff3700e1d79f0065fd2f008d
:102aa00085824700b5b79f0016002000c6b79f007b
:102ab0007aff3700e1d79f000c0cb3008c00780040
:102ac000010cb20032003a000c00e00005003d00ad
:102ad0009fb097004105be004104be0091b79f0022
:102ae000080037000c48a3000b0032001fb297000b
:102af0004401be0094b79f000204be004fcdde002b
:102b00008a057800b8b79f00c9b79f00dab79f0061
:102b1000ebb79f00090037009fb49700c900780009
:102b200099b79f00610ab900612bb900b4b79f0043
:102b3000c5b79f00d6b79f00e7b79f003fb4970087
:102b4000cfb497005fb59700efb59700e00f540042
:102b5000e08f5c00e00f5d00e08f5d0022003d0033
:102b60003c00b3006022b8006033b8000804520093
:102b700089845a000a055b008b855b00b8b79f000b
:102b8000c9b79f00dab79f00ebb79f001600370068
:102b90000c00e00004003d001fb497004803be0095
:102ba0004802be00050037000c48a30005003200b3
:102bb0001fb497004802be006033b80098b79f006a
:102bc000050037009fb49700c900780099b79f00af
:102bd000610ab8006033b800b4b79f00c5b79f0062
:102be000d6b79f00e7b79f00afb297000500e0009f
:102bf0000d003a0016002000a6b79f003fb49700d2
:102c0000cfb497005fb59700efb59700e00f540081
:102c1000e08f5c00e00f5d00e08f5d00020032009d
:102c20008004eb00a9b79f000c0578000a0cb200e5
:102c30008ab79f0001042000810f55003400320044
:102c400003003c000a00e0000800320048003700a2
:102c5000010820008fb59700818f550014003200c5
:102c6000010c2000818f550041003a00c2c22600ad
:102c700011c0b3003202be003203be003fb4970061
:102c8000cfb497005fb59700efb597000440e1001f
:102c900005c8e10006d0e10007d8e10033003900a3
:102ca0008140e800f4cf5000f2ff3a002f003700d7
:102cb00011c0b30004012000050020006033b800fb
:102cc0003fb49700cfb497005fb59700efb597007a
:102cd0000440e10005c8e10006d0e10007d8e100aa
:102ce00022003900490020000402d0008582d20071
:102cf0000683d2008783d2008904e900faff3a00f4
:102d00008140e800f0cf5000edff3a001700370097
:102d100011c0b30084002000050020006033b8001b
:102d20003fb49700cfb497005fb59700efb5970019
:102d30000440e10005c8e10006d0e10007d8e10049
:102d40000a003900390020000402d0008582d20038
:102d50000683d2008783d2008904e900faff3a0093
:102d60008140e800f5cf5000edff3a00e1d79f0029
:102d70006fd597008a00fb00afb597008b8f50008e
:102d800002003d00ebd79f00040037002fb19700f1
:102d9000810f510001003d00a1b79f000000e0003d
:102da00003003200e3006600010032000000e90089
:102db0000ce8a30006003200afb19700830f50006b
:102dc0000200340003005000010037000000eb0057
:102dd0006fd297008400fb008002eb00f5af9f00ec
:102de000810f50000200340081005000f1af9f00bd
:102df0000c28a3003c003200610166000c18a300ff
:102e00000f0032003d0090000068a3000600320071
:102e1000b10220000200e000010032008180e800e1
:102e20000e0178000d003700b00220000200e00023
:102e3000010032000080e8008d0078000e003700ad
:102e40000200e000100032003d0090000068a30086
:102e5000070032000e017800010220000d0078000a
:102e6000c6fd07000000e00006003a00060037003b
:102e70008d007800000220001c010700e10f4000d7
:102e8000010032000e07e8007fab97000600e0006b
:102e900052003200060478003d0090000068a30054
:102ea000070032000e017800010320000d007800b9
:102eb000b2fd07000000e00006003a0006003700ff
:102ec0008d0078000003200008010700e10f40009a
:102ed000010032000e07e8000804e900eeff3a00a6
:102ee000f8af9f003d003700ffab97000700e00000
:102ef000160032000c38a30014003a0007047800d2
:102f00003d0090000068a300070032000e01780029
:102f1000010220000d00780098fd07000000e0008d
:102f200006003a00060037008d00780000022000fd
:102f3000ee000700e10f4000010032000e07e8003c
:102f40000804e900eeff3a00f8af9f006101660057
:102f50000c18a3000f0032003d0090000068a30091
:102f600006003200b10220000200e0000100320041
:102f70008180e8000e0178000d003700b0022000cb
:102f80000200e000010032000080e8008d007800bf
:102f90000e0037000200e000100032003d009000fb
:102fa0000068a300070032000e0178000102200033
:102fb0000d00780071fd07000000e00006003a00f7
:102fc000060037008d00780000022000c7000700cf
:102fd000e10f4000010032000e07e8002fb4970017
:102fe0008800e900c308dd0040c2260000804000e0
:102ff000e0af9f0096003700afb497008904e90066
:10300000a9b79f00000420000fb59700800f55005e
:103010006a00320003003c000a00e00008003200b1
:1030200077003700000820008fb59700808f55008b
:103030004c003200000c2000808f550070003a00d8
:103040000c00e0001e003d006fa897003004be0099
:103050002005be000802be000a03be003fb0970074
:10306000cfb097005fb19700efb19700060207005d
:10307000e0d79f000000fb00cf80de006109b900af
:103080000802be000a03be00680207003fb29700b4
:10309000cfb297005fb39700efb3970000025200e2
:1030a00081825a0002035b0083835b00b4b79f00f8
:1030b000c5b79f00d6b79f00e7b79f002500370030
:1030c0000c48a3001a0032003fb29700cfb297001d
:1030d0006fab97003604be002605be000801be0097
:1030e0000400be00f4b79f0085bf9f00b3f807003f
:1030f000e0d79f000000fb00cf80de000801be008b
:10310000420107007fb297008fba97000002520079
:1031100081825a000404be006055b800b8b79f0011
:10312000c9b79f00dab79f00ebb79f0009003700cf
:10313000efac9700190178003fb597001100090026
:103140000285d800a2002000110009000280d800ea
:10315000e1d79f00efd597000b43b000ebd79f005e
:1031600027003700b0c026000c58a3000100320031
:10317000a0bf26002fb19700c210dd003fb297001c
:10318000cfb297005fb39700efb397008100e900db
:10319000050033008703d1000683d3008582d30066
:1031a0000482d300f9ff37006f026200040240007e
:1031b00014427800e4d79f0011003700afb19700a8
:1031c000e318b9003fb29700cfb297005fb3970002
:1031d000efb39700000478000804e900050033000d
:1031e0008703d1000683d3008582d3000482d300f5
:1031f000f9ff3700674062000043b000e0d79f004e
:10320000bd009000efd497000900fb000168a30007
:10321000070032000e017800800078000d00780071
:10322000d6fc07000000e00005003a00050037006a
:103230008d0078002d000700e10f400001003200f2
:103240000e07e8006fad970068055500eaaf9f00d4
:10325000afb597000b00e00067ff3a000c38a30001
:10326000160032007fa897000000e0001300340031
:10327000000478003d0090000068a30007003200c1
:103280000e017800010220000d007800bbfc070051
:103290000000e00006003a00060037008d007800cc
:1032a0000002200011000700e10f40000100320081
:1032b0000e07e8000804e900eeff3a00dfa89700d7
:1032c00011407800e0d79f000004e000befc3a0007
:1032d0000e0078004f0778004f06be004f05be0075
:1032e0004f04be00ef01b10000000600889fbe0041
:1032f00001047800b80090008084eb000118a3005e
:103300003a003200180190000198a30002003a0030
:103310000200e00035003a000190a000310498005e
:1033200080047800f90fb2000200e00002003a00c9
:1033300028009000000c7800ea8f540005003a0045
:103340000178a30003003a0088007800d000200034
:10335000e6ff070018009000d8009000810f500091
:103360000b0032000000e8001004980018007800fc
:1033700009487800000ce80011c0b30040fa2600ac
:1033800001487800ea8f540018003a000500370021
:1033900088007800094078003d000700800478002c
:1033a00012003700380090000088a3000f003200a0
:1033b00018019000a80090004800900031f5070027
:1033c00098009000810f50000400320038009000f7
:1033d0000003b300300498008084eb000000eb0091
:1033e0001004980028009000000c78000900780074
:1033f0004f04be0000000600889fbe008a1f7800b0
:1034000001057800800478000004eb00010037001b
:103410000804e800b94078000104e000050032002b
:103420008100fb000a00780006fb07000000e000b6
:10343000f7ff3200080078004f0578004f04be0007
:1034400000000600889fbe008a1f780001057800f2
:10345000800478000004eb00010037000804e80055
:10346000b94078000104e000050032008100fb0053
:103470000a007800f3fa07000000e000f7ff3a00c6
:10348000080078004f0578004f04be0000000600d9
:103490000200fa00889fbe00a0ff9f000104780090
:1034a000380090000068a30033003a00e20060009a
:1034b00005003a000003b30030049800110498009e
:1034c0000080eb002e003700d80490000900e000d7
:1034d00006003a0012002000e680570048009000e5
:1034e000e8f407001904980023003700a8009000b2
:1034f0000100e00008003a0071fa2600210498005b
:10350000010c78002100200051049800110498005b
:103510000030a0003004980018019000a80090002e
:1035200048009000d7f40700280090008080eb004e
:1035300011049800aff8970001487800000ce800eb
:103540002ff89700ea4f50000b003a003800900027
:103550000088a3000800320018019000a800900025
:1035600048009000c7f407000000eb00100498002a
:10357000a8009000010c7800aff897000100fb0054
:103580004f04be000080fa000000060000c0da0010
:1035900000000600839f68000100e00002003d007b
:1035a00060001000e08018000300e00002003d0011
:1035b00060011100e081190080f707004f00e00072
:1035c00002003b0060001000e080180000000600d0
:1035d000811f78000100e00002003d006000100043
:1035e000e08018000300e00002003d0060011100cf
:1035f000e081190081f707004f00e00002003b0066
:1036000060001000e080180000000600020ab90007
:10361000001bb9000200b800810042008100430095
:1036200000000600889fbe008a9fbe003004420052
:10363000b0844a0030054b0090854b006000b1001b
:103640000898be000a90be000440e10005c8e100f1
:1036500006d0e10007d8e100020031006800400018
:103660001008e8004f05be004f04be000000060031
:10367000889fbe008a9fbe003004be002005be00a9
:103680000418540005985c0006185d0007985d005a
:10369000110020000440e10005c8e10006d0e1006f
:1036a00007d8e100010039008000eb00108810000d
:1036b0004f05be004f04be00000006001200fa00d5
:1036c000889fbe008a9fbe008c9fbe00e0b79f000f
:1036d000f1b79f0082bf9f0093bf9f000605be0009
:1036e0000404be000000eb00d0b79f00c0b79f00ed
:1036f000b0b79f00a0b79f0090b79f000006eb00f7
:103700005fb19700cfb09700820141003fb09700b2
:103710000200e00004003d00370007007e805700f3
:10372000c0ff070003003700330007007e8057000a
:10373000cfff0700dfb697000d00e0000c0035005a
:103740006fb29700ffb297000fbb97009fbb970027
:1037500010002000010020006011b800000272007b
:103760008182720002037300838373001b000700d1
:103770000c06e80001042000810f5600e0ff3a002b
:103780000d00e00004003d000802be000a03be0078
:103790007e805700a3ff07005fa897000000e000ad
:1037a00005003a001fb29700afb297003fb39700f1
:1037b000cfb39700090007006fb09700ffb09700e4
:1037c0000fb997009fb997004f06be004f05be0086
:1037d0004f04be000080fa00000006000100070050
:1037e00000000600a4b79f00b5b79f00c6b79f00b2
:1037f000d7b79f00000006004f09de0082817100ec
:10380000b3b79f004f01de008180400082807000ce
:10381000a1b79f008fb097004f09de000000400065
:103820000200700090b79f007fa897004f01de0054
:10383000818040008280700081b79f000d000700ea
:103840004f3ade000000400004007000f0af9f001f
:10385000080007000402420085824a0006034b006c
:1038600087834b00dfff07000802be000a03be008b
:10387000000006002fb29700bfb297004fb3970029
:10388000dfb3970000000600881f780018002000b2
:10389000881f780089ff07008f87e9004f047800b0
:1038a00000000600801feb0084ff07008f87e900ff
:1038b00000000600889fbe008a9fbe00e00f5000f7
:1038c000e08f5800e00f5900e08f59000c003d00d8
:1038d0006044b8006055b8000000540081805c006e
:1038e00002015d0083815d001800200015000700c3
:1038f00008003d00180007000004eb000500370039
:103900000004eb000f00070002003d00120007005a
:1039100018002000dcff07000800e000060032006d
:103920006022b8006033b8000000520081805a0065
:1039300002015b0083815b004f05be004f04be00a7
:1039400000000600e00f5200e08f5a00e00f5b001d
:10395000e08f5b00000006006044b8006055b800ce
:103960000402540085825c0006035d0087835d00cd
:1039700000000600889fbe008a9fbe008c1f780052
:10398000e00f5000e08f5800e00f5900e08f590021
:103990000d003d006044b8006055b80000005400c0
:1039a00081805c0002015d0083815d001c002000bd
:1039b0000820e10009a8e1000ab0e1000bb8e1002d
:1039c0000d003d00080037000006eb00e00f52003c
:1039d000e08f5a00e00f5b00e08f5b0006003d00c7
:1039e0006044b8006055b8000402540085825c0051
:1039f00006035d0087835d00aaff07000c00e0005e
:103a0000060032006022b8006033b80000005200a7
:103a100081805a0002015b0083815b004f067800c1
:103a20004f05be004f04be0000000600889fbe0088
:103a30008a9fbe008c1f78000006eb00e00f50004c
:103a4000e08f5800e00f5900e08f590007003d005b
:103a50006044b8006055b8000000540081805c00ec
:103a600002015d0083815d001c002000e00f520018
:103a7000e08f5a00e00f5b00e08f5b0007003d0025
:103a80006044b8006055b8000402540085825c00b0
:103a900006035d0087835d000c00a2000c00070098
:103aa0000c00e000060032006022b8006033b8006d
:103ab0000000520081805a0002015b0083815b009c
:103ac0004f0678004f05be004f04be000000060000
:103ad000889fbe008a9fbe008c9fbe000404b80071
:103ae0000506b8008904460060854e000606b80049
:103af0000a054600e0854e000706b8008b05460023
:103b0000040eb800890446000a854e00e0854d0089
:103b1000050eb8000a0546008b854e00060eb8005b
:103b20008b0546000416b8000a0546008b854e003a
:103b30000516b8008b054600041eb8008b0546002c
:103b40000800be000a01be004f06be004f05be00c1
:083b50004f04be000000060056
:020000040000fa
:103b5800252e000030320000782500002e300000ad
:103b680032780000252e0000303200007825000051
:103b78002e30000032780000000d00000a0000001e
:103b88004d45000054450000523100002825000032
:103b98002e30000032780000252e00003032000060
:103ba800782500002e30000032780000252e000015
:103bb8003032000078290000204d000045540000f4
:103bc8004552000032280000252e00003032000047
:103bd800782500002e30000032780000252e0000e5
:103be80030320000782500002e30000032780000c6
:103bf8002900000052450000535400002825000009
:103c080078290000204e0000554d00005052000059
:103c18004f470000282500007329000020410000bc
:103c28004352000045530000282500007329000076
:103c38002053000055420000282500007329000089
:103c4800004400004154000041280000252e0000d7
:103c580030320000782f0000252e0000303200009e
:103c6800782f0000252e000030320000782900004f
:103c780020000000484f00005241000028250000a5
:103c88002e300000327800003a2500002e30000067
:103c9800327800003a2500002e300000327800000b
:103ca8002920000000440000454d000028250000a0
:103cb8007829000020000000434400004d2800003f
:103cc800252e000030310000782900002000000077
:103cd8004353000055280000252e00003031000015
:103ce8007829000020000000464500005228000006
:103cf800252e000030320000782f0000252e00000d
:103d080030320000782f0000252e000030320000ed
:103d1800782c0000252e000030320000782f00009b
:103d2800252e000030320000782f0000252e0000dc
:103d380030320000782c0000252e000030320000c0
:103d4800782f0000252e000030320000782f000068
:103d5800252e000030320000782c0000252e0000af
:103d680030320000782f0000252e0000303200008d
:103d7800782f0000252e000030320000782c00003b
:103d8800252e000030320000782f0000252e00007c
:103d980030320000782f0000252e0000303200005d
:103da800782c0000252e000030320000782f00000b
:103db800252e000030320000782f0000252e00004c
:103dc80030320000782c0000252e00003032000030
:103dd800782f0000252e000030320000782f0000d8
:103de800252e000030320000782c0000252e00001f
:103df80030320000782f0000252e000030320000fd
:103e0800782f0000252e000030320000782c0000aa
:103e1800252e000030320000782f0000252e0000eb
:103e280030320000782f0000252e000030320000cc
:103e3800782c0000252e000030320000782f00007a
:103e4800252e000030320000782f0000252e0000bb
:103e580030320000782c0000252e0000303200009f
:103e6800782f0000252e000030320000782f000047
:103e7800252e000030320000782c0000252e00008e
:103e880030320000782f0000252e0000303200006c
:103e9800782f0000252e000030320000782c00001a
:103ea800252e000030320000782f0000252e00005b
:103eb80030320000782f0000252e0000303200003c
:103ec800782c0000252e000030320000782f0000ea
:103ed800252e000030320000782f0000252e00002b
:103ee80030320000782c0000252e0000303200000f
:103ef800782f0000252e000030320000782f0000b7
:103f0800252e000030320000782900002000000033
:103f18004354000045300000282500002e300000e2
:103f28006c7800002f2500002e3000006c7800000f
:103f38002c2500002e3000006c7800002f25000092
:103f48002e3000006c7800002c2500002e30000078
:103f58006c7800002f2500002e3000006c780000df
:103f6800292000000053000048280000252e0000ea
:103f7800303100007829000020000000534800007c
:103f88005f500000282500002e3000003278000025
:103f98003a2500002e300000327800002c25000061
:103fa8002e300000327800003a2500002e30000044
:103fb800327800002c2500002e30000032780000f6
:103fc8003a2500002e300000327800002c25000031
:103fd8002e300000327800003a2500002e30000014
:103fe800327800002920000000530000485f0000dc
:103ff80046280000252e000030320000783a0000e4
:10400800252e000030320000782c0000252e0000fc
:1040180030320000783a0000252e000030320000cf
:10402800782c0000252e000030320000783a00007d
:10403800252e000030320000782c0000252e0000cc
:1040480030320000783a0000252e0000303200009f
:104058007829000020000000534800005f5200004b
:10406800282500002e300000327800003a25000094
:104078002e300000327800002c2500002e30000081
:10408800327800003a2500002e3000003278000017
:104098002c2500002e300000327800003a25000060
:1040a8002e300000327800002c2500002e30000051
:1040b800327800003a2500002e30000032780000e7
:1040c8002920000000530000483200005f50000023
:1040d800282500002e300000327800003a25000024
:1040e8002e300000327800002c2500002e30000011
:1040f800327800003a2500002e30000032780000a7
:104108002c2500002e300000327800003a250000ef
:104118002e300000327800002c2500002e300000e0
:10412800327800003a2500002e3000003278000076
:104138002920000000530000483200005f460000bc
:10414800282500002e300000327800003a250000b3
:104158002e300000327800002c2500002e300000a0
:10416800327800003a2500002e3000003278000036
:104178002c2500002e300000327800003a2500007f
:104188002e300000327800002c2500002e30000070
:10419800327800003a2500002e3000003278000006
:1041a8002920000000530000483200005f52000040
:1041b800282500002e300000327800003a25000043
:1041c8002e300000327800002c2500002e30000030
:1041d800327800003a2500002e30000032780000c6
:1041e8002c2500002e300000327800003a2500000f
:1041f8002e300000327800002c2500002e30000000
:10420800327800003a2500002e3000003278000095
:104218002920000000530000483200002825000033
:104228002e300000317800002c2500002e300000d0
:10423800327800002f2500002e3000003278000070
:104248002c2500002e300000327800002f250000b9
:104258002e300000327800002c2500002e3000009f
:10426800327800002f2500002e3000003278000040
:104278002c2500002e300000327800002f25000089
:104288002e30000032780000292000000053000082
:1042980048320000283000002920000000480000b3
:1042a80052280000252e0000303100007829000037
:1042b800200000005245000050280000252e000074
:1042c80030310000782c0000252e0000303200002c
:1042d800782c0000252e00003032000078290000dc
:1042e800200000005245000050280000302900003e
:1042f8002000000048560000282500002e3000004d
:10430800317800002c2500002e30000032780000a3
:104318002f2500002e300000327800002c250000e8
:104328002e300000327800002f2500002e300000cb
:1043380032780000292000000047000043300000c8
:10434800282500002e300000327800002c250000bf
:104358002e300000327800002c2500002e3000009e
:104368003278000029200000005400005228000084
:10437800255800002c250000782c00002578000026
:104388002c250000582c0000255800002c25000082
:1043980030320000783a0000253000003278000002
:1043a8002c25000030320000783a0000253000004b
:1043b800327800002c25000030320000783a0000e6
:1043c80025300000327800002c2500003032000033
:1043d800783a000025300000327800002c250000d3
:1043e80030320000783a00002530000032780000b2
:1043f8002c25000030320000783a000025300000fb
:10440800327800002c25000030320000783a000095
:1044180025300000327800002c25000030320000e2
:10442800783a000025300000327800002c25000082
:1044380030310000782c0000253000003178000071
:104448002c25000030310000782c000025300000b9
:10445800317800002920000000530000485f000068
:104468005344000046280000257800002c25000051
:10447800782c00002578000029200000005000005a
:10448800554e0000283000002c300000303a000063
:10449800303000002c300000303a0000303000008e
:1044a8002c300000303a0000303000002c30000082
:1044b800303a0000303000002c300000303a000064
:1044c800303000002c300000303a0000303000005e
:1044d8002c300000303a0000303000002c30000052
:1044e800303a0000303000002c3000002920000055
:1044f80000500000554e0000282500002e30000016
:10450800317800002c2500002e30000032780000a1
:104518003a2500002e300000327800002c250000db
:104528002e300000327800003a2500002e300000be
:10453800327800002c2500002e3000003278000070
:104548003a2500002e300000327800002c250000ab
:104558002e300000327800003a2500002e3000008e
:10456800327800002c2500002e3000003278000040
:104578003a2500002e300000327800002c2500007b
:104588002e300000327800003a2500002e3000005e
:10459800327800002c2500002e3000003278000010
:1045a8003a2500002e300000327800002c2500004b
:1045b8002e300000327800003a2500002e3000002e
:1045c800327800002c2500002e30000031780000e1
:1045d8002920000000500000554e0000282500004a
:1045e80030310000782c00002530000032780000bf
:1045f8003a25000030320000782c000025300000f9
:10460800327800003a25000030320000782c000093
:1046180025300000327800003a25000030320000d2
:10462800782c000025300000327800003a25000080
:1046380030320000782c000025300000327800006d
:104648003a25000030320000782c000025300000a8
:10465800327800003a25000030320000782c000043
:1046680025300000327800003a2500003032000082
:10467800782c000025300000327800003a25000030
:1046880030320000782c000025300000317800001e
:104698002920000000500000554e00002825000089
:1046a80030310000782c00002530000032780000fe
:1046b8003a25000030320000782c00002530000038
:1046c800327800003a25000030320000782c0000d3
:1046d80025300000327800003a2500003032000012
:1046e800782c000025300000327800003a250000c0
:1046f80030320000782c00002530000032780000ad
:104708003a25000030320000782c000025300000e7
:10471800327800003a25000030320000782c000082
:1047280025300000327800003a25000030320000c1
:10473800782c000025300000327800003a2500006f
:1047480030320000782c000025300000317800005d
:1047580029000000414700004d280000252e0000d8
:1047680030320000782c0000252e00003032000086
:10477800782c0000252e000030320000782c000034
:10478800252e000030320000782c0000252e000075
:1047980030320000782c0000252e00003032000056
:1047a80078290000004d000045440000282500003d
:1047b8002e320000582500002e3200005825000037
:1047c8002e320000582500002e3200005829000023
:1047d800200000004448000043280000252e000067
:1047e800325800002f2500002e320000582f0000fc
:1047f800252e0000325800002d2500002e32000022
:10480800583a0000252e0000325800003a250000d2
:104818002e3200005829000020000000433100001b
:104828002825000073290000200000004332000002
:1048380028250000732900002000000043330000f1
:1048480028250000732900002000000044480000cb
:10485800282500002e320000582f0000252e0000c9
:10486800325800002f2500002e320000582d00007d
:10487800252e0000325800003a2500002e32000094
:10488800583a0000252e0000325800002920000068
:10489800004900004128000025730000292000007d
:1048a8000056000041280000257300002920000060
:1048b800004900004228000025730000292000005c
:1048c800005600004228000025730000292000003f
:1048d800004900004328000025730000292000003b
:1048e800005600004328000025730000292000001e
:1048f80000410000564100002825000073290000ef
:1049080020000000415600004228000025730000e6
:10491800292000000041000056430000282500001f
:1049280073290000200000004149000041280000d0
:1049380025730000292000000041000049420000c2
:1049480028250000732900002000000041490000cc
:1049580043280000257300002920000000440000bf
:104968004856000041280000257300002920000057
:10497800004400004856000042280000257300004b
:104988002920000000440000485600004328000089
:104998002573000029200000004400004849000059
:1049a8004128000025730000292000000044000071
:1049b8004849000042280000257300002920000013
:1049c8000044000048490000432800002573000007
:1049d800292000000044000048540000283f00003f
:1049e800292000000046000052280000257300001e
:1049f8002920000000530000454e000048410000f7
:104a0800004400004154000041000000484f0000ed
:104a18005241000000440000454d000000430000e2
:104a2800444d0000004300005355000000500000b2
:104a3800554e0000004600004552000000430000ab
:104a4800544500000053000048000000534800008f
:104a58005f50000000530000485f0000460000005f
:104a6800534800005f520000005300004832000025
:104a780000530000483200005f500000005300005f
:104a8800483200005f460000005300004832000032
:104a98005f5200000048000052000000524500002c
:104aa8005000000048560000004700004300000086
:104ab8005452000000530000485f000053440000b7
:104ac80046000000494e0000494300000050000025
:104ad8007265000070610000726100006e64000081
:104ae8006f20000070610000726100002063000008
:104af8006f6e000065780000616f000020630000a1
:104b08006f6d0000206d000065640000696400009e
:104b18006f720000206400006120000073650000cf
:104b280072690000616c0000200000002e2e000059
:104b380054690000706f0000204500007665000091
:104b48006e7400006f3a000020000000534f000010
:104b58004d4500004e54000045200000454e000021
:104b6800564900004f000000535400004154000013
:104b78005553000000520000454100004400000069
:104b8800414200004e5400002050000055520000e1
:104b98004f000000414c0000544500005241000005
:104ba800434100004f2000005041000052410000e6
:104bb8004d450000545200004f000000414c0000d9
:104bc800415200004d45000000540000616d000096
:104bd800616e0000686f0000206400006120000022
:104be8004c6500006974000075720000613a0000ad
:104bf800200000004573000070650000726100002d
:104c08006e6400006f2000006f2000005245000015
:104c1800414400000d0a00000045000072720000c7
:104c28006f2000006d65000064690000646f00007b
:104c3800720d00000a000000526500006d6f000050
:104c4800766500007520000065760000656e00003e
:104c5800746f00000d0a000000520000454100007a
:104c680044280000436d000064200000436f0000ea
:104c78006d7000006f730000746f0000292c000035
:104c8800206300006d64000041740000756100003d
:104c98006c4c0000696400006f3a000020000000be
:104ca8005175000065620000726100002064000018
:104cb800652000007365000071750000656e0000d6
:104cc80063690000612000006e6f0000206d000025
:104cd80065640000696400006f7200000d0a00003e
:104ce800004f000070650000726100006361000001
:104cf8006f20000052650000616c0000697a0000b6
:104d080061640000612e00002e2000005265000042
:104d18006d6f000076650000752000006576000064
:104d2800656e0000746f00000d0a0000005200005c
:104d38004541000044280000436d00006420000045
:104d4800536900006d7000006c6500007329000055
:104d58002c200000636d00006441000074750000a1
:104d6800616c00004c690000646f00003a2000008c
:104d7800004f0000636f000072720000656e000053
:104d880063690000612000006e6f0000206d000064
:104d980065640000696400006f7200002e2e000038
:104da80020520000656d00006f76000065750000f8
:104db80020650000766500006e7400006f0d00002d
:104dc8000a000000436f00006d6100006e6400007f
:104dd8006f2000006e6100006f200000696d000008
:104de800706c0000656d0000656e00007461000065
:104df800646f00003a200000004f0000636f00005d
:104e080072720000656e0000636900006120000096
:104e18006e6f0000206300006f6d0000616e00007f
:104e2800646f00003a20000000500000617200002a
:104e3800616d000065740000726f00002069000059
:104e48006e760000616c0000696400006f0000006d
:104e5800546100006d6100006e6800006f20000062
:104e680064610000204c0000656900007475000052
:104e780072610000284300006d64000020530000a8
:104e8800696d0000706c000065730000293a00002d
:104e980020000000526500006d6f0000766500007c
:104ea8007520000065760000656e0000746f0000d4
:104eb80020540000696d0000656f000075740000e3
:104ec8000d0a00000020000054690000706f000007
:104ed80020450000766500006e7400006f3a0000ff
:104ee800004e00006f7600006f2000006d65000026
:104ef80064690000646f0000722000006e610000a9
:104f08002073000065720000696100006c3a0000bf
:104f18002000000020520000657000004465000079
:104f28006d3a000020000000454e00005452000079
:104f380041440000412800002569000029200000a4
:104f48000044000041540000415f0000494e000049
:104f580049430000494100004c280000252e00006c
:104f680030320000692f0000252e0000303200008a
:104f7800692f0000256900002d2500002e30000053
:104f8800326900003a2500002e3000003269000026
:104f98003a2500002e300000326900002920000068
:104fa8000044000041540000415f000046490000f1
:104fb8004e4100004c280000252e00003032000031
:104fc800692f0000252e000030320000692f0000f4
:104fd800256900002d2500002e30000032690000f0
:104fe8003a2500002e300000326900003a25000002
:104ff8002e30000032690000292000000046000021
:1050080041530000455f0000415f0000445200002a
:1050180050280000252e000030320000782e0000b5
:10502800252e000030320000782900002000000002
:1050380046410000534500005f4200005f44000005
:1050480052500000282500002e3000003278000061
:105058002e2500002e3000003278000029200000a4
:105068000046000041530000455f0000435f000018
:105078004452000050280000252e00003032000065
:10508800782e0000252e000030320000782900001c
:105098002000000046410000534500005f41000029
:1050a8005f44000052430000282500002e30000015
:1050b800327800002e2500002e30000032780000e3
:1050c800292000000046000041530000455f000011
:1050d800425f00004452000043280000252e0000d3
:1050e80030320000782e0000252e000030320000fb
:1050f80078290000200000004641000053450000c8
:105108005f4300005f440000524300002825000070
:105118002e300000327800002e2500002e300000ce
:105128003278000029000000436f00006d61000024
:105138006e6400006f200000656e00007669000054
:10514800616400006f3a0000200000000d0a0000b2
:1051580000410000504e00005f530000494d000020
:105168005f31000000410000504e00005f53000016
:10517800494d00005f32000000410000504e000021
:105188005f530000494d00005f3100002800000017
:10519800415000004e5f0000534900004d5f000081
:1051a800322800000055000053450000525f0000ff
:1051b80047500000525300005f530000494d000063
:1051c8005f3100000055000053450000525f0000a9
:1051d80047500000525300005f530000494d000043
:1051e8005f3200000055000053450000525f000088
:1051f80047500000525300005f530000494d000023
:105208005f3100002800000055530000455200009f
:105218005f47000050520000535f000053490000f0
:105228004d5f00003228000000500000415300008c
:10523800535f000047500000525300005f530000c6
:10524800494d00005f31000000500000415300004c
:10525800535f000047500000525300005f530000a6
:10526800494d00005f32000000500000415300002b
:10527800535f000047500000525300005f53000086
:10528800494d00005f310000280000005041000037
:10529800535300005f47000050520000535f000066
:1052a800534900004d5f0000322800000050000004
:1052b800494e00005f530000494d00005f31000077
:1052c80000500000494e00005f530000494d0000a7
:1052d8005f32000000500000494e00005f5300009c
:1052e800494d00005f3100002800000050490000cf
:1052f8004e5f0000534900004d5f00003228000057
:1053080000490000505f000041530000594e000062
:10531800435f0000534900004d5f0000310000006a
:10532800495000005f410000535900004e430000ff
:105338005f530000494d00005f3200000049000043
:10534800505f000041530000594e0000435f0000c9
:10535800534900004d5f000031280000004900005b
:10536800505f000041530000594e0000435f0000a9
:10537800534900004d5f0000322800000043000040
:105388004d4400003a200000544500004d500000f4
:10539800002e0000302900000d0a00000043000024
:1053a8004d4400003a2000004841000052440000eb
:1053b800574100005245000000310000303600001f
:1053c80046300000393900002d300000314200001d
:1053d800004300004d4400003a20000053490000fb
:1053e800474e0000414c0000004300004d440000bf
:1053f8003a20000053490000474e0000414c00008d
:105408005f540000454d0000500000002e300000a1
:1054180029200000002900000d0a000000430000b8
:105428004d4400003a20000056450000520000009c
:10543800434d0000443a0000205600004552000049
:105448005f440000454d0000414e0000444100000b
:10545800004300004d4400003a2000004241000093
:105468005454000045520000595f00005354000096
:105478004154000055530000004400004f4e000006
:105488004500000000000000434d0000443a0000c1
:1054980020470000455400005f50000041520000c2
:1054a800414d00005f4800004152000044430000a5
:1054b8004f52000045000000495000005f530000b3
:1054c8005749000054430000485f0000534900005a
:1054d8004d5f000031280000005000004f520000ce
:1054e800545f00005357000049540000434800002f
:1054f8005f530000494d00005f31000028000000a4
:10550800504f0000525400005f4100005359000002
:105518004e4300005f530000494d00005f3100001a
:1055280028000000504f0000525400005f41000066
:10553800535900004e4300005f530000494d0000de
:105548005f32000028000000544900004d4500006b
:105558004f550000545f00005357000049540000a5
:10556800434800003128000000540000494d000065
:10557800454f0000555400005f5300005749000094
:105588005443000048320000280000004b4500004a
:1055980045500000414c000049560000455f00009e
:1055a800574f0000524400002800000054490000f2
:1055b8004d4500005f420000454600004f52000084
:1055c800455f00005245000053450000545f00004d
:1055d8004e450000545700004f5200004b28000071
:1055e80000540000494d0000455f0000424500009e
:1055f800464f0000524500005f520000455300002e
:10560800455400005f4e000045540000574f00000d
:10561800524b0000004300004d4400003a200000b7
:105628005357000049540000434800005f530000ee
:10563800494d00005f430000415200004400000053
:10564800434d0000443a0000204100004c41000056
:10565800524d000053000000434d0000443a000042
:1056680020470000455400005f4d000045540000ed
:1056780045520000004300004d4400003a2000005d
:1056880047450000545f00004d45000054450000a8
:1056980052530000004300004d4400003a2000002f
:1056a80047450000545f00004d4500005445000088
:1056b800525f0000434f00004e460000494700007b
:1056c800004300004d4400003a20000054520000fe
:1056d8004f430000415f0000534500004e48000062
:1056e8004100000020000000004e00004f5600005e
