:020000040000fa
:080000000002040000000000f2
:020000040000fa
:04000800e002000012
:020000040000fa
:04000c00e00200000e
:020000040000fa
:04001000e00200000a
:020000040000fa
:04001400e002000006
:020000040000fa
:04001800e002000002
:020000040000fa
:04001c00e0020000fe
:020000040000fa
:04002000e0020000fa
:020000040000fa
:04002400e0020000f6
:020000040000fa
:04002800e0020000f2
:020000040000fa
:04002c00e0020000ee
:020000040000fa
:04003000e0020000ea
:020000040000fa
:04003400e0020000e6
:020000040000fa
:04003800e0020000e2
:020000040000fa
:04003c00e0020000de
:020000040000fa
:04004000e0020000da
:020000040000fa
:04004400e0020000d6
:020000040000fa
:04004800e0020000d2
:020000040000fa
:04004c00e0020000ce
:020000040000fa
:04005000e0020000ca
:020000040000fa
:04005400e0020000c6
:020000040000fa
:04005800e0020000c2
:020000040000fa
:04005c00e0020000be
:020000040000fa
:04006000e0020000ba
:020000040000fa
:04006400e0020000b6
:020000040000fa
:04006800e0020000b2
:020000040000fa
:04006c00e0020000ae
:020000040000fa
:04007000e0020000aa
:020000040000fa
:04007400e0020000a6
:020000040000fa
:0400780092030000af
:020000040000fa
:04007c00e00200009e
:020000040000fa
:04008000e00200009a
:020000040000fa
:04008400e002000096
:020000040000fa
:04008800e002000092
:020000040000fa
:04008c00e00200008e
:020000040000fa
:04009000e00200001a
:020000040000fa
:040094002a0300003b
:020000040000fa
:04009800b0030000b1
:020000040000fa
:04009c00e00200007e
:020000040000fa
:0400a000e00200007a
:020000040000fa
:0400a400e002000076
:020000040000fa
:0400a800e002000072
:020000040000fa
:0400ac00e00200006e
:020000040000fa
:0400b000e00200006a
:020000040000fa
:0400b400e002000066
:020000040000fa
:0400b800e002000062
:020000040000fa
:0400bc00e00200005e
:020000040000fa
:0400c000e00200005a
:020000040000fa
:0400c400e002000056
:020000040000fa
:0400c800e002000052
:020000040000fa
:0400cc00e00200004e
:020000040000fa
:0400d000e00200004a
:020000040000fa
:0400d400e002000046
:020000040000fa
:0400d800e002000042
:020000040000fa
:0400dc00e00200003e
:020000040000fa
:0400e000e00200003a
:020000040000fa
:0400e400e002000036
:020000040000fa
:0400e800e002000032
:020000040000fa
:0400ec00e00200002e
:020000040000fa
:0400f000e00200002a
:020000040000fa
:0400f400e002000026
:020000040000fa
:0400f800e002000022
:020000040000fa
:0400fc00e00200001e
:020000040000fa
:04010000e002000019
:020000040000fa
:04010400e002000015
:020000040000fa
:04010800e002000011
:020000040000fa
:04010c00e00200000d
:020000040000fa
:04011000e002000009
:020000040000fa
:04011400e002000005
:020000040000fa
:04011800e002000001
:020000040000fa
:04011c00e0020000fd
:020000040000fa
:04012000e0020000f9
:020000040000fa
:04012400e0020000f5
:020000040000fa
:04012800e0020000f1
:020000040000fa
:04012c00e0020000ed
:020000040000fa
:04013000e0020000e9
:020000040000fa
:04013400e0020000e5
:020000040000fa
:04013800e0020000e1
:020000040000fa
:04013c00e0020000dd
:020000040000fa
:04014000e0020000d9
:020000040000fa
:04014400e0020000d5
:020000040000fa
:04014800e0020000d1
:020000040000fa
:04014c00e0020000cd
:020000040000fa
:04015000e0020000c9
:020000040000fa
:04015400e0020000c5
:020000040000fa
:04015800e0020000c1
:020000040000fa
:04015c00e0020000bd
:020000040000fa
:04016000e0020000b9
:020000040000fa
:04016400e0020000b5
:020000040000fa
:04016800e0020000b1
:020000040000fa
:04016c00e0020000ad
:020000040000fa
:04017000e0020000a9
:020000040000fa
:04017400e0020000a5
:020000040000fa
:04017800e0020000a1
:020000040000fa
:04017c00e00200009d
:020000040000fa
:04018000e002000099
:020000040000fa
:04018400e002000095
:020000040000fa
:04018800e002000091
:020000040000fa
:04018c00e00200008d
:020000040000fa
:04019000e002000089
:020000040000fa
:04019400e002000085
:020000040000fa
:04019800e002000081
:020000040000fa
:04019c00e00200007d
:020000040000fa
:0401a000e002000079
:020000040000fa
:0401a400e002000075
:020000040000fa
:0401a800e002000071
:020000040000fa
:0401ac00e00200006d
:020000040000fa
:0401b000e002000069
:020000040000fa
:0401b400e002000065
:020000040000fa
:0401b800e002000061
:020000040000fa
:0401bc00e00200005d
:020000040000fa
:0401c000e002000059
:020000040000fa
:0401c400e002000055
:020000040000fa
:0401c800e002000051
:020000040000fa
:0401cc00e00200004d
:020000040000fa
:0401d000e002000049
:020000040000fa
:0401d400e002000045
:020000040000fa
:0401d800e002000041
:020000040000fa
:0401dc00e00200003d
:020000040000fa
:0401e000e002000039
:020000040000fa
:0401e400e002000035
:020000040000fa
:0401e800e002000031
:020000040000fa
:0401ec00e00200002d
:020000040000fa
:0401f000e002000029
:020000040000fa
:0401f400e002000025
:020000040000fa
:0401f800e002000021
:020000040000fa
:0401fc00e00200001d
:020000040000fa
:04020000e002000018
:020000040000fa
:04020400e002000014
:020000040000fa
:04020800e002000010
:020000040000fa
:04020c00e00200000c
:020000040000fa
:04021000e002000008
:020000040000fa
:04021400e002000004
:020000040000fa
:04021800e002000000
:020000040000fa
:04021c00e0020000fc
:020000040000fa
:04022000e0020000f8
:020000040000fa
:04022400e0020000f4
:020000040000fa
:04022800e0020000f0
:020000040000fa
:04022c00e0020000ec
:020000040000fa
:04023000e0020000e8
:020000040000fa
:04023400e0020000e4
:020000040000fa
:04023800e0020000e0
:020000040000fa
:04023c00e0020000dc
:020000040000fa
:04024000e0020000d8
:020000040000fa
:04024400e0020000d4
:020000040000fa
:04024800e0020000d0
:020000040000fa
:04024c00e0020000cc
:020000040000fa
:04025000e0020000c8
:020000040000fa
:04025400e0020000c4
:020000040000fa
:04025800e0020000c0
:020000040000fa
:04025c00e0020000bc
:020000040000fa
:04026000e0020000b8
:020000040000fa
:04026400e0020000b4
:020000040000fa
:10040000cf0022000eff27000e0188000000000030
:10041000000020000000e000020032000001200087
:10042000200288000c000700a058200001002000d6
:100430000f000700000020000000e0000200320072
:1004400000000200000000006a0502000000000039
:100450000040da000000fe00400120000000e00043
:1004600002003200002020009001880000000600f9
:10047000a1028800800078000000eb001a0037001d
:10048000e280400054a0b4009101ba00e280400034
:1004900054a0b4009102ba00e280400054a0b4001d
:1004a0000002eb00472bde00f507b200a601880032
:1004b000602ce10008003a000049eb000201e8006e
:1004c000020039003420ec0002f0a0008301e900b2
:1004d000f9ff3e00040037006128e100010032000e
:1004e0000082eb000b00070011c3ba001101ba0033
:1004f0000604e00003003a000200e000e0ff3a00da
:1005000000000600f607b200a6028800820078000c
:10051000f5ff370004d0a300e20f49001c003900aa
:10052000810278003549ba000201e8000200390072
:100530003420ec0002f0a0008301e9000f0032003b
:100540002549ba000201e800020039003420ec001d
:1005500002f0a0008301e900080032000400e0007e
:100560000600320015c9ba000201e8000200390095
:100570003420ec0002f0a0008301e9008180e80053
:1005800054a0b4000300e000e2ff3a0000000600bf
:100590009102ba00055978008301e900f7ff3200a3
:1005a000c82ade00055978008301e900f3ff320014
:1005b0000400e000f1ff320011d9ba00eeff37006d
:0805c0000040da000000fe001b
:020000040000fa
:1005c800546500007374000065200000426f00004d
:1005d8006f7400006c6f00006164000065720000b9
:0805e800210d00000a000000d3
:020000040000fa
:1005f0001000810001008100810f500014003200c2
:100600001e01e2001200350002002100000141003d
:10061000a1002200924878000000e8001000890044
:10062000f17f2000810f5000020036000000eb0037
:100630001000890011c0b30080002200014878003a
:10064000d10880008180e900a10888001fe1a8008e
:1006500000000600809fbe00821f78000368a9008a
:100660008000220010407800e14f500005003a0061
:10067000354ea90021c0b300800022000148780057
:1006800025003700ea4f500016003a00354ea8000a
:100690001000810001008100810f50000c00320029
:1006a0000200210000014100a100220092487800d0
:1006b0000000e80010008900f17f2000810f500049
:1006c000040036000000eb00100089000100370034
:1006d0001fe1a90011c0b30080002200014878008a
:1006e0000d003700a1002200914078000108a3000e
:1006f00002003200354ea80001003700354ea90037
:100700008180fb008100d100a20022000149780015
:10071000810022008048e8004f0178004f00be00b1
:1007200000400600809fbe000388a9001821ef004a
:1007300050c32000e008880021e1a80011c0b300e8
:100740009000220001487800b00022000048eb0031
:100750002288a9000288a9004f00be0000400600c0
:10076000809fbe00829fbe0030822000e00888008b
:10077000b00022009080fb008100d1000141780090
:1007800001487800330eab00020032000274a00072
:10079000024878000388a9009000220010407800e9
:1007a000e84f50000f003a00210081000280210034
:1007b00001014100b3002200134978008100e800e4
:1007c00021008900f27f2000828f50000200360055
:1007d0008000eb00210089000288a9002288a8007f
:1007e00021e1a900910022008048e8004f01be00ed
:1007f0004f00be0000400600010081000200210001
:1008000001014100004978000100e8000000890072
:10081000f17f2000810f5000020036000000eb0045
:100820000000890000000600889fbe0000047800d8
:10083000f90f20008884440018407800eeff07007c
:100840005804e00002003200890f5400faff3a0019
:100850004f04be00000006008001780031008100d6
:100860000040eb0022008100810f51000d0032009a
:100870000080210081004000914978003100810012
:100880008100e8003100890010c0b300f27f200031
:10089000828f5000030036000000eb00300089001a
:1008a00010c0b300000006000000eb00200089002b
:1008b0003000890000000600fbff07000000eb008d
:1008c000000089001000890010c0b30081002200e0
:1008d000804878009100220080487800310ea800fe
:1008e000354ea800314ea900100ea800142ea90004
:1008f000102ea9001e21ef001421ef00604280009d
:1009000000c0a00000d0a00000e0a000604288006d
:100910000368a9002368a80030822000d00888005e
:100920002021ef001821ef00704280007000b3001a
:10093000704288000388a9002388a800f10f2800ce
:10094000003580008080600000802400010070007d
:1009500000358800c228a800504280007000b30013
:10096000504288000288a9002288a80000000600e2
:100970003000810021008100810f500002003e0004
:100980000080500003003700028020008280400079
:1009900000805000000006002028ef002228ef0011
:1009a0002428ef002628ef002828ef002a28ef004f
:1009b0002c28ef002e28ef003028ef000028ef0051
:1009c0000228ef000428ef000628ef000828ef00b7
:1009d0000a28ef000c28ef000e28ef001028ef0087
:1009e00040a7a9004427ef00e0012000303a88002a
:1009f000a10920003200200080072000337420006d
:100a0000804978008149780082497800710520008a
:100a10001200200060042000237420008049780028
:100a200081497800824978000200270001002300f4
:100a3000133a800003006100810f5000fcff3a0070
:100a400001022000123a800002806000fdff3200a7
:100a50002222ef002022ef003222ef003022ef00ae
:100a60000421ef001021ef001221ef000080eb00c5
:100a70008070880000718800807188000072880092
:100a80008072880000738800004e200000198800e2
:100a90002223ef00f0f32100201988003223ef0019
:100aa0002e23ef003023ef0040002000f07088007c
:100ab0002e2eef003e2eef004e2eef006e2eef009a
:100ac00021e3a8000822ef000622ef0042c7a90098
:100ad00000000600cc040200000000005c040200dc
:100ae00000000000402e28007e05020000000000eb
:100af000f802020000000000fdff370014040200ad
:100b00000000000000000600fc03020000000000de
:040b100000000600db
:020000040000fa
:100b1400001000000c10000080000000920580000e
:020000040000fa
:040b240000000000cd
:020000040000fa
:0200000401f009
:04000800cfff000026
:020000040000fa
:0200000401f009
:04000c0078ff000079
:020000040000fa
:0200000401f009
:040010005dff000090
:020000040000fa
:0200000401f009
:040014007fff00006a
:020000040000fa
:0200000401f009
:04001800ffff0000e6
:020000040000fa
:0200000401f009
:04001c00deff000003
:020000040000fa
:0200000401f009
:04002000cfff00000e
:00000001FF
